:100000000C942A000C943F000C943F000C943F0089
:100010000C943F000C943F000C943F000C943F0064
:100020000C943F000C943F000C943F000C943F0054
:100030000C943F000C943F000C943F000C943F0044
:100040000C943F000C943F000C943F000C943F0034
:100050000C943F0011241FBECFE5D8E0DEBFCDBF1A
:1000600010E0A0E6B0E0E0EBF1E002C005900D92F8
:10007000A837B107D9F70E94B4000C94D6000C94AD
:100080000000413091F018F0423029F10895E82F36
:10009000F0E0EE0FFF1FE059FF4F0190F081E02DDF
:1000A0008081609568236083089590E0880F991F90
:1000B000FC01E059FF4F0190F081E02D3081262FA7
:1000C00020952323208388599F4FDC01ED91FC91DB
:1000D0008081682BE8CFE82FF0E0EE0FFF1FE0599A
:1000E000FF4F0190F081E02DF3CF442319F0413010
:1000F00079F00895E82FF0E0EE0FFF1FE859FF4F69
:100100000190F081E02D80816095682360830895DF
:10011000E82FF0E0EE0FFF1FE859FF4F0190F0814C
:10012000E02D8081682BF2CFE82FF0E0EE0FFF1F6B
:10013000E859FF4F0190F081E02D808168276083AE
:100140000895E82FF0E0EE0FFF1FE05AFF4F0190F7
:10015000F081E02D8081682319F4FA01108208955E
:1001600081E0FA018083089542E064E082E00E9429
:10017000410041E064E082E00E9475002FEF83EDD2
:1001800090E3215080409040E1F700C0000040E043
:1001900064E082E00E9475002FEF83ED90E3215030
:1001A00080409040E1F700C00000E3CFF894FFCF1B
:1001B00039003600330030003B0038003500320093
:0801C0003A0037003400310061
:00000001FF
