:100000000C942A000C94A9010C94D2010C94FB01CD
:100010000C9447000C9447000C9447000C947521F5
:100020000C9447000C9447000C943E030C9447003A
:100030000C9447000C9447000C9447000C94470024
:100040000C9447000C9447000C9447000C94470014
:100050000C94470011241FBECFE5D8E0DEBFCDBF12
:1000600010E0A0E6B0E0E4EBF3E402C005900D92EE
:10007000AA39B107D9F727E0AAE9B0E001C01D927B
:10008000A332B207E1F70E9478210C94D8210C9496
:1000900000000E947207909322078093210780E05E
:1000A0000E94190481E00E94190482E00E94190450
:1000B00080E00E945E0481E00E945E0482E00E9473
:1000C0005E0490E080E00E942015E3CFCF93DF93A1
:1000D00000D01F92CDB7DEB71B821A82198210E0C2
:1000E000BE016D5F7F4F80E00E947004BE016E5FB5
:1000F0007F4F81E00E947004BE016F5F7F4F82E0FE
:100100000E9470048B818130D1F411608A8181302A
:10011000C1F412608091210790912207298121303A
:1001200091F41460412F50E070E060E00E945A08A2
:1001300064E670E080E090E00E940919D1CF1E7F54
:10014000E5CF1D7FE7CF1B7F69F747E050E060E018
:1001500070E00E943708ECCFCC24CA94DC2C7601E6
:1001600000E020E047E050E060E070E0809121078F
:10017000909122070E94870740E050E0BA018091E9
:100180002107909122070E94370860931D07709302
:100190001E0780931F079093200760FF03C080E035
:1001A0000E944F0480911D0781FF03C081E00E94DF
:1001B0004F0480911D0782FF03C082E00E944F041C
:1001C00064E670E080E090E00E940919C5CF4130FC
:1001D00091F018F0423029F10895E82FF0E0EE0F89
:1001E000FF1FEF58FF4F0190F081E02D8081609557
:1001F00068236083089590E0880F991FFC01EF58F1
:10020000FF4F0190F081E02D3081262F2095232390
:10021000208387599F4FDC01ED91FC918081682BF1
:10022000E8CFE82FF0E0EE0FFF1FEF58FF4F0190EF
:10023000F081E02DF3CF442319F0413079F0089597
:10024000E82FF0E0EE0FFF1FE759FF4F0190F0811C
:10025000E02D80816095682360830895E82FF0E0A9
:10026000EE0FFF1FE759FF4F0190F081E02D8081D5
:10027000682BF2CFE82FF0E0EE0FFF1FE759FF4F9A
:100280000190F081E02D8081682760830895E82F38
:10029000F0E0EE0FFF1FEF59FF4F0190F081E02DCE
:1002A0008081682319F4FA011082089581E0FA012F
:1002B00080830895813041F018F0823041F0089534
:1002C0008BB780648BBF08958BB78068FBCF8BB7EB
:1002D0008062F8CF813041F018F0823041F008950B
:1002E0008BB78F7B8BBF08958BB78F77FBCF8BB787
:1002F0008F7DF8CF813079F018F08230D9F00895F1
:1003000085B78C7F85BF85B7682B65BF50939F00ED
:1003100040939E00089585B7837F85BF85B794E09D
:10032000699FB0011124682B65BF50939D004093D5
:100330009C000895633041F484B7806484BF509377
:100340009B0040939A0008956230C9F784B78F7B71
:10035000F5CF1F920F920FB60F9211242F933F9358
:100360004F935F936F937F938F939F93AF93BF93BD
:10037000EF93FF93E0919E00F0919F00309709F07A
:100380000995FF91EF91BF91AF919F918F917F91CF
:100390006F915F914F913F912F910F900FBE0F90F2
:1003A0001F9018951F920F920FB60F9211242F9342
:1003B0003F934F935F936F937F938F939F93AF93ED
:1003C000BF93EF93FF93E0919C00F0919D003097D5
:1003D00009F00995FF91EF91BF91AF919F918F9196
:1003E0007F916F915F914F913F912F910F900FBE31
:1003F0000F901F9018951F920F920FB60F92112415
:100400002F933F934F935F936F937F938F939F931C
:10041000AF93BF93EF93FF93E0919A00F0919B000D
:10042000309709F00995FF91EF91BF91AF919F919E
:100430008F917F916F915F914F913F912F910F908D
:100440000FBE0F901F90189520E4829FC0011124C9
:1004500020E2629FB0011124862B87B9406846B91B
:10046000089597B1907E97B997B1892B87B9369A3D
:10047000349BFECF349A3D9B06C085B190E0FB01D2
:1004800091838083089584B195B1F9CF12BE83B76B
:100490009091AC00892B83BF08951DBC1CBC8EB508
:1004A0009FB52091AB00822B9FBD8EBD0895882300
:1004B00039F0813021F47FBD6EBD4093AB000895CB
:1004C0006836710529F4433318F0425360E670E052
:1004D00063BF4093AC000895CF92DF92EF92FF92FA
:1004E0006A017B01811112C08AEF8CBF0E94460213
:1004F00081E0C81AD108E108F1088FEFC816D806C4
:10050000E806F80641F483B7887F83BFFF90EF9039
:10051000DF90CF90089508B601FEFDCF88B78260C6
:1005200088BFE6CF0F93882329F08130C9F40F915B
:100530000C944D028AEF8CBF4093A6005093A70005
:100540006093A8007093A9003093A5002093A400A5
:100550000093AA0089B7826089BF0F910C9446026C
:100560000F910895811101C06CBF0895882319F07F
:10057000813019F008950C9446020C944D028823A2
:1005800019F0813029F0089583B7887F83BF0895DB
:100590008EB59FB5887F9FBD8EBD0895AF92BF92E7
:1005A000CF92DF92EF92FF920F931F93CF93DF933F
:1005B00000D000D000D0CDB7DEB75C018B01CE01FA
:1005C00001967C0186E0F70111928A95E9F78EB5D4
:1005D0009FB580649FBD8EBD0E944D02F7019E01B4
:1005E000295F3F4F08B605FEFDCF86B597B58193CD
:1005F000919388B7806288BF8EB59FB540E4842709
:100600009FBD8EBDE217F30769F78EB59FB5887F52
:100610009FBD8EBD89819A81CD80DE80C81AD90A9E
:10062000F12CE12C2B813C81281B390BA4E6B0E096
:100630000E94C021A70196010E949E21F5012083FE
:1006400060E970ED83E090E0A70196010E949E2191
:10065000F801208331834283538326960FB6F894A2
:10066000DEBF0FBECDBFDF91CF911F910F91FF90E5
:10067000EF90DF90CF90BF90AF9008951F920F92B0
:100680000FB60F9211242F933F934F935F936F9365
:100690007F938F939F93AF93BF93EF93FF9380913B
:1006A000A0009091A100A091A200B091A30001969A
:1006B000A11DB11D8093A0009093A100A093A20062
:1006C000B093A3004091A6005091A7006091A800AC
:1006D0007091A90084179507A607B707B1F4E091B8
:1006E000A400F091A500309781F009951092A00028
:1006F0001092A1001092A2001092A3008091AA0073
:10070000811103C083B7887F83BFFF91EF91BF91B1
:10071000AF919F918F917F916F915F914F913F9199
:100720002F910F900FBE0F901F90189528E12AB9B6
:1007300026E820BD89B99F7790BD08955D9B04C0D0
:100740008CB95E9BFECF5E9A08955F9B03C02CB16F
:10075000FC0120830895615008F408955D9BFBCF50
:10076000FC0120812CB95E9BFECF5E9A0196F3CFEF
:1007700020FF709A34E0439FA0011124406490E26E
:10078000699FB0011124462B30E1839FC0011124E1
:10079000482B2695242B2DB908958FB9779BFECF32
:1007A0008FB1FB01808308959091AD00911104C039
:1007B0008FB991E09093AD00779B04C09FB1FB018E
:1007C00090838FB9089588E480B911B8089594EAA8
:1007D00096BF91B1987F983021F091B1987F903178
:1007E000C1F7880F682B63B984E886BF06B607FE99
:1007F000FDCF089584E986BF06B604FCFDCF0895B9
:1008000083B984E886BF06B607FEFDCF089524ECC1
:1008100026BF06B607FEFDCF23B1FC012083089555
:1008200024E826BF06B607FEFDCF23B1FC012083D6
:100830000895813049F018F0823049F0089542E07F
:1008400064E082E00C94E70042E060E8FACF42E026
:1008500068E083E0F7CF813049F018F0823049F04A
:10086000089541E064E082E00C941B0141E060E8FF
:10087000FACF41E068E083E0F7CF813049F018F02B
:10088000823049F0089540E064E082E00C941B015E
:1008900040E060E8FACF40E068E083E0F7CF8130E5
:1008A00041F018F0823039F0089564E082E00C9451
:1008B0003A0160E8FBCF68E083E0F9CF813049F08E
:1008C00018F0823051F0089540E061E081E00C942E
:1008D000E70040E060E483E0FACF40E064E0FBCF73
:1008E000AB01813041F018F0823041F0089561E0B1
:1008F00081E00C94470160E483E0FBCF64E0FCCF2F
:10090000CF93C82F42E060E180E00E94E70042E020
:1009100060E280E00E94E70042E060E480E00E9444
:10092000E70042E060E880E00E94E700CC2321F08D
:10093000C13041F0CF91089542E064E081E0CF9171
:100940000C94E70042E062E0F9CF882319F081308F
:1009500031F0089541E064E081E00C941B0141E036
:1009600062E0FACF882319F0813031F0089540E039
:1009700064E081E00C941B0140E062E0FACFCF9389
:100980008A30F0F4C82F482F417060E180E00E9467
:100990001B01C1FB442740F960E280E00E941B017B
:1009A000C2FB442740F960E480E00E941B014C2F09
:1009B00046954695469560E880E0CF910C941B01E2
:1009C000CF910895CF93C82F40E062E081E00E946C
:1009D0001B0140E064E081E00E941B01C4FB44274E
:1009E00040F960E180E00E941B01C5FB442740F90B
:1009F00060E280E00E941B01C6FB442740F960E4EE
:100A000080E00E941B014C2F441F4427441F60E8D4
:100A100080E00E941B0140E068E081E00E941B0131
:100A200087EC90E00197F1F700C0000041E068E03A
:100A300081E00E941B014C2F417060E180E00E9428
:100A40001B01C1FB442740F960E280E00E941B01CA
:100A5000C2FB442740F960E480E00E941B01C3FB15
:100A6000442740F960E880E00E941B0140E068E014
:100A700081E00E941B0187EC90E00197F1F700C034
:100A8000000041E068E081E0CF910C941B01CF931E
:100A9000C82F41E062E081E00E941B0140E064E079
:100AA00081E00E941B01C4FB442740F960E180E023
:100AB0000E941B01C5FB442740F960E280E00E94D0
:100AC0001B01C6FB442740F960E480E00E941B0143
:100AD0004C2F441F4427441F60E880E00E941B0104
:100AE00040E068E081E00E941B0187EC90E0019704
:100AF000F1F700C0000041E068E081E00E941B01C6
:100B00004C2F417060E180E00E941B01C1FB442733
:100B100040F960E280E00E941B01C2FB442740F9DB
:100B200060E480E00E941B01C3FB442740F960E8B9
:100B300080E00E941B0140E068E081E00E941B0110
:100B400087EC90E00197F1F700C0000041E068E019
:100B500081E0CF910C941B0142E06EE081E00E94A5
:100B6000E70042E060EF80E00E94E70041E068E0DB
:100B700081E00E941B012FEF80E792E0215080402E
:100B80009040E1F700C0000040E060E180E00E949A
:100B90001B0141E060E280E00E941B0140E060E454
:100BA00080E00E941B0140E060E880E00E941B01A1
:100BB00040E068E081E00E941B0187EC90E0019733
:100BC000F1F700C0000041E068E081E00E941B01F5
:100BD0008CE20E94E2048FE99FE00197F1F700C0E8
:100BE00000008FE00E94E2048FE99FE00197F1F797
:100BF00000C0000081E00E94E2048FE39FE10197C2
:100C0000F1F700C0000086E00E94E2048FE99FE057
:100C10000197F1F700C0000008950C944705CF93A9
:100C2000DF93EC018991811103C0DF91CF91089589
:100C30000E944705F7CF6068862B0C94E20441E0E0
:100C40006FE082E00E94E70042E060EF82E00E94F5
:100C5000E70041E060EF82E00C941B016F927F920D
:100C60008F929F92AF92BF92CF92DF92EF92FF92BC
:100C70000F931F93CF93DF931F92CDB7DEB76C0115
:100C8000FC011082F12CE12C90E1692E712C88245A
:100C90008394912C53010E2C01C0AA0C0A94EAF7FC
:100CA00040E06A2D82E00E941B0110E000E0AE01EE
:100CB0004F5F5F4FB401002E01C0660F0A94EAF740
:100CC00082E00E9447018981811136C0FFEF24E351
:100CD0008CE0F15020408040E1F700C00000F801B6
:100CE000EE0FFF1FEE0FFF1FE758FF4FEE0DFF1D2A
:100CF0008081F601808341E06A2D82E00E941B0121
:100D0000F6018081811108C0FFEFEF1AFF0A24E08D
:100D1000E216F10409F0BECF0F90DF91CF911F9141
:100D20000F91FF90EF90DF90CF90BF90AF909F908A
:100D30008F907F906F9008950F5F1F4F04301105C3
:100D400009F0B5CFD8CF0C94E303CF93DF93D62F20
:100D5000C42F60E080650E94E7038D2F0E9400048D
:100D60008FE39CE90197F1F700C000008C2F0E94EF
:100D700000048FE39CE90197F1F700C00000DF91C8
:100D8000CF910C94FA030F931F93CF93DF93D62F39
:100D90008A01C22F213108F0C0E160E080650E9425
:100DA000E7038D2F0E9400048FE39CE90197F1F780
:100DB00000C00000C15060F48FE39CE90197F1F797
:100DC00000C00000DF91CF911F910F910C94FA03A6
:100DD000F80181918F010E940004ECCF0F931F93C3
:100DE000CF93DF93D62F8A01C82FC06560E08C2F88
:100DF0000E94E7038D2F0E9400048FE39CE9019776
:100E0000F1F700C0000061E08C2F0E94E703C801E9
:100E10000E9410048FE39CE90197F1F700C00000E5
:100E2000DF91CF911F910F910C94FA03EF92FF92F3
:100E30000F931F93CF93DF93162F7A01D82FD0658E
:100E4000CFEFC20F60E08D2F0E94E703812F0E9439
:100E500000048FE39CE90197F1F700C0000061E016
:100E60008D2F0E94E703DC2F8701D15098F4C70132
:100E70008C0F911D0E9410048FE39CE90197F1F7FC
:100E800000C00000DF91CF911F910F91FF90EF9074
:100E90000C94FA03C8010E9407040F5F1F4FE5CFAF
:100EA00088E090E09FBD8EBD1BBC1ABC1DBC1CBC65
:100EB00008952AEF269FA001279F500D11245BBDA6
:100EC0004ABD89B7806189BF8EB59FB583609FBDDC
:100ED0008EBD08958091B200833018F48F5F8093A7
:100EE000B2000895CF93DF938FE090E00E94B409A1
:100EF000EC01009741F0FC011192119211921192B4
:100F0000CF010E94FB09CE01DF91CF9108952F926E
:100F10003F924F925F926F927F928F929F92AF9289
:100F2000BF92CF92DF92EF92FF920F931F93CF93D6
:100F3000DF93EC014A015B01622E702E0E9486163F
:100F4000288039804A805B80D201C10188219921A3
:100F5000AA21BB2101115DC0892B8A2B8B2B09F0A3
:100F60005EC0C114D104E104F104C1F040E050E0DE
:100F7000BA01662021F040E050E060E071E07110BD
:100F80007460482959296A297B2997018601CE0175
:100F900004960E94F919212C312C21010E94D417AA
:100FA000CD28CE28CF2801F1811102C00E94C02097
:100FB0000E94F31B91FD15C00FB6F8940F92688143
:100FC00079818A819B8175016401C622D722E8223A
:100FD000F922711038C0CD28CE28CF28C9F50F903E
:100FE0000FBE1B012C015524C201B101DF91CF912D
:100FF0001F910F91FF90EF90DF90CF90BF90AF9037
:101000009F908F907F906F905F904F903F902F9028
:10101000089588169906AA06BB0609F0A2CF662095
:1010200071F0D501C40180959095A095B09582216D
:101030009321A421B52188839983AA83BB83C12CE2
:10104000D12C7601ABCF8C149D04AE04BF0439F6CD
:10105000662029F280949094A094B09486229722DE
:10106000A822B92288829982AA82BB82B8CF0F9324
:101070001F930FB6F8940F92FC0100811181228119
:10108000338140955095609570954023512362239C
:10109000732340835183628373830F900FBEC90112
:1010A000B8011F910F910895FC01608171818281C7
:1010B000938108952F923F924F925F926F927F9209
:1010C0008F929F92AF92BF92CF92DF92EF92FF9258
:1010D0000F931F93CF93DF93EC016A017B018C0187
:1010E000095F1F4F0E948616EB85FC854881598158
:1010F0006A817B814C295D296E297F294883598328
:101100006A837B83C12CD12C7601488159816A8105
:101110007B81E017F10729F5C094D094E094F09416
:101120004C215D216E217F21488359836A837B8313
:101130000E94D417688179818A819B81DF91CF9148
:101140001F910F91FF90EF90DF90CF90BF90AF90E5
:101150009F908F907F906F905F904F903F902F90D7
:1011600008953480258080809180A280B380D5014D
:10117000C401BB272C013D0144225522662277225F
:10118000B2FC07C045284628472841F4E32DF22D3C
:10119000BCCF84159505A605B705C1F7B0FE04C000
:1011A000C82AD92AEA2AFB2A7260CF010E94E81ACB
:1011B000EDCF4F925F926F927F928F929F92AF92FC
:1011C000BF92CF92DF92EF92FF920F931F93CF9334
:1011D000DF9300D000D000D0CDB7DEB79E838D83E3
:1011E0002A013B01480159010E948616AD81BE814A
:1011F0008D919D910D90BC91A02D89839A83AB8395
:10120000BC83B301A2018D819E810E945A0889810D
:101210009A81AB81BC81482A592A6A2A7B2AD30148
:10122000C20180239921AA21BB2188159905AA050D
:10123000BB0509F063C0ED81FE8180819181A281AF
:10124000B381B501A80140955095609570958423B0
:101250009523A623B72380839183A283B383C12CD4
:10126000D12C76010E94D417CD28CE28CF2869F141
:10127000811102C00E94C0200E94F31B91FD22C078
:101280000FB6F8940F92ED81FE81608171818281A9
:10129000938175016401C622D722E822F922C8147D
:1012A000D904EA04FB0461F480949094A094B0946F
:1012B00086229722A822B92280829182A282B382BA
:1012C0000F900FBE2B013C017724C301B20126967B
:1012D0000FB6F894DEBF0FBECDBFDF91CF911F9147
:1012E0000F91FF90EF90DF90CF90BF90AF909F90C5
:1012F0008F907F906F905F904F900895C114D104AC
:10130000E104F10471F097018601B501A401756053
:101310008D819E8104960E94F919412C512C320135
:10132000A1CFAD81BE814D905D906D907C909ACFA4
:10133000CF93DF93EC010E9486168C81811107C048
:10134000CE010E94EC09DF91CF910C94D41740E0BC
:1013500050E060E072E08B859C850E94E81AEDCF3A
:101360000C945A080C9437080F931F93CF93DF9374
:101370008C010E9486168091B3009091B400892B55
:1013800031F487EB90E09093B4008093B3000115A3
:101390001105F9F02091B5003091B600020F131F2E
:1013A0000B3D85E01807A8F42017310790F4C09191
:1013B000B300D091B400C20FD31F1093B6000093B6
:1013C000B5000E94D417CE01DF91CF911F910F91EC
:1013D0000895D0E0C0E0F5CF08951092B6001092C5
:1013E000B50008952091B5003091B6008BED95E0E1
:1013F000821B930B0895FC010396928381834FEF28
:101400005FEFBA0143835483658376839087878334
:101410009287818710820895FC01138612860895B1
:10142000CF93DF939C01FB01DC011196CD91DC9100
:10143000D583C4838E819F81978386838E819F818C
:10144000DC0115967C936E9314977F836E833387AC
:101450002287F90180818F5F8083DF91CF9108958A
:10146000EF92FF920F931F93CF93DF937C01FB01C9
:101470004081518162817381DC0113964F3F8FEF70
:1014800058076807780701F5E701A985BA8514961A
:101490008D919C91159795838483EC01FF83EE8356
:1014A000B783A6831596FC93EE931497F386E28692
:1014B000F70180818F5F8083DF91CF911F910F9122
:1014C000FF90EF900895DC0114968D919C911597F3
:1014D000EC01088119812A813B814017510762077D
:1014E000730788F7D4CFCF93DF93FC01A285B38530
:1014F0008481958126813781EC013F832E83C681CB
:10150000D7819D838C8311968D919C9112978E1714
:101510009F0721F41296DC93CE93119713861286BF
:101520008C9181508C938C91DF91CF9108950FB65F
:10153000F8940F92FC01968D0F900FBE81E09111EF
:1015400080E008950F931F93CF93DF93EC01042F56
:101550001E8D48A14423C1F050E001111DC08A81B5
:101560009B810E94CF2188A12A813B81820F932FEA
:10157000911D9B838A832C813D818217930720F0E4
:10158000888199819B838A831F5F1E8F80E0DF9112
:10159000CF911F910F9108958E819F810E94CF213D
:1015A00088A190E09195819591092E813F81280F26
:1015B000391F3F832E83488159812417350730F422
:1015C0002C813D81820F931F9F838E830230E1F631
:1015D0001123D1F21150D8CFFC01CB0140A14423FB
:1015E000A1F050E026813781240F351F37832683F1
:1015F000648175812617370720F020813181378378
:101600002683668177810C94CF210895EF92FF9213
:101610001F93CF93DF93EC010FB6F8940F921AA1AA
:101620007C0183E1E80EF11C1116C4F08FEF8AA350
:101630000F900FBE0FB6F8940F9219A17E0188E0AB
:10164000E80EF11C1116ACF08FEF89A30F900FBEBE
:10165000DF91CF911F91FF90EF9008958B898823A0
:1016600029F3C7010E94431A81110E94EA1B1150FD
:10167000DBCF8885882341F3C7010E94431A81117B
:101680000E94EA1B1150DECFCF93DF93009709F43D
:101690003FC0FC01278D222309F43AC0EC0140A190
:1016A0000FB6F8940F9280819181FC01249FE00D88
:1016B000F11D1124FD83EC831E8E9B838A832150B0
:1016C000330B429FF001439FF00D11248E0F9F1F9B
:1016D0009F838E838FEF89A38AA3611110C08885B1
:1016E000882339F0CE0108960E94431A81110E9486
:1016F000C0200F900FBE81E0DF91CF910895CE0101
:1017000008960E94FB09CE0143960E94FB09F1CF87
:1017100080E0F2CF0F931F93CF93DF93811108C026
:10172000D0E0C0E0CE01DF91CF911F910F910895DD
:10173000162F082F869FC001112483960E94B4099A
:10174000EC01009769F3111109C0998388830F8F09
:1017500018A361E0CE010E94440BE4CF83969983E5
:101760008883F5CFAF92BF92CF92DF92EF92FF9234
:101770000F93CF93DF93CDB7DEB729970FB6F894C9
:10178000DEBF0FBECDBF7C016B012E833F83488738
:10179000598780E0570198E0A90EB11C0FB6F89464
:1017A0000F92F701268D978D291710F0023019F549
:1017B000402FB601C7010E94A20AF701938999231D
:1017C00021F0C70143960E94431A81110E94C02054
:1017D0000F900FBE81E029960FB6F894DEBF0FBEC2
:1017E000CDBFDF91CF910F91FF90EF90DF90CF9021
:1017F000BF90AF9008954E815F8168857985452BB4
:10180000462B472B21F40F900FBE80E0E4CF8111CF
:1018100004C0CE0101960E94871B0F900FBE0E944C
:1018200086160FB6F8940F92F70181A18F3F09F445
:1018300011A2F70182A18F3F09F412A20F900FBEEF
:10184000BE016A5F7F4FCE0101960E94981B8111F5
:1018500022C00FB6F8940F92F701968D0F900FBE2D
:10186000878D981312C04E815F8168857985C50187
:101870000E94E219C7010E94060B0E94D417811131
:1018800002C00E94C02081E089CFC7010E94060BE0
:101890000E94D417F8CFC7010E94060B0E94D417EC
:1018A000B4CFEF92FF921F93CF93DF93EC019E8D05
:1018B0008F8D981718F080E02230D1F47A011AA1A8
:1018C0008E8D422FCE010E94A20A1F3FB9F48B8950
:1018D000811102C081E00CC0CE0143960E94431AE0
:1018E0008823C1F3E114F104A9F381E0F7018083B7
:1018F000DF91CF911F91FF90EF9008951F5F1AA382
:10190000E9CFCF93DF93FC01968D878D9817D8F49C
:1019100082A19F5F968F8F3F99F48389811102C0C6
:1019200081E00BC0EB01CF0143960E94431A88234C
:10193000B9F32097A9F381E08883DF91CF910895CF
:101940008F5F82A3EDCF80E0F8CFAF92BF92CF92AE
:10195000DF92FF920F931F93CF93DF93CDB7DEB744
:1019600029970FB6F894DEBF0FBECDBF8C016B0177
:101970002E833F834887598780E0580193E1A90E61
:10198000B11C0FB6F8940F92F801F68CFF2021F1EC
:10199000B601C8010E94EC0AFA94F801F68E80851F
:1019A000882339F0C80108960E94431A81110E94C9
:1019B000C0200F900FBE81E029960FB6F894DEBFCD
:1019C0000FBECDBFDF91CF911F910F91FF90DF90A0
:1019D000CF90BF90AF9008954E815F8168857985E3
:1019E000452B462B472B21F40F900FBE80E0E4CF10
:1019F000811104C0CE0101960E94871B0F900FBE7B
:101A00000E9486160FB6F8940F92F80181A18F3FBD
:101A100009F411A2F80182A18F3F09F412A20F90DC
:101A20000FBEBE016A5F7F4FCE0101960E94981BD8
:101A300081111DC0C8010E94970A882391F04E8130
:101A40005F8168857985C5010E94E219C8010E94FD
:101A5000060B0E94D417811102C00E94C02081E0B1
:101A600090CFC8010E94060B0E94D417F8CFC8017E
:101A70000E94060B0E94D417C8010E94970A88236F
:101A800071F3B4CFEF92FF920F931F93CF93DF9335
:101A9000CDB7DEB729970FB6F894DEBF0FBECDBF26
:101AA0008C014E835F836887798790E0780183E1BA
:101AB000E80EF11C0FB6F8940F92F801868D88237A
:101AC000E1F08150868F8085882339F0C80108961F
:101AD0000E94431A81110E94C0200F900FBE81E026
:101AE00029960FB6F894DEBF0FBECDBFDF91CF9120
:101AF0001F910F91FF90EF9008954E815F8168854F
:101B00007985452B462B472B21F40F900FBE80E0A3
:101B1000E7CF911104C0CE0101960E94871B0F9060
:101B20000FBE0E9486160FB6F8940F92F80181A19D
:101B30008F3F09F411A2F80182A18F3F09F412A28C
:101B40000F900FBEBE016A5F7F4FCE0101960E94CB
:101B5000981B81111DC0C8010E94970A882391F02B
:101B60004E815F8168857985C7010E94E219C801AD
:101B70000E94060B0E94D417811102C00E94C0204F
:101B800091E098CFC8010E94060B0E94D417F8CFAD
:101B9000C8010E94060B0E94D417C8010E94970A30
:101BA000882371F3B4CFCF92DF92EF92FF920F931D
:101BB0001F93CF93DF93CDB7DEB729970FB6F89475
:101BC000DEBF0FBECDBF8C017B012E833F834887D4
:101BD000598780E0680193E1C90ED11C0FB6F894D3
:101BE0000F92F801968D992329F1C680D780B7010D
:101BF000C8010E94EC0AF801D782C6828389882333
:101C000039F0C80143960E94431A81110E94C020F6
:101C10000F900FBE81E029960FB6F894DEBF0FBE7D
:101C2000CDBFDF91CF911F910F91FF90EF90DF908B
:101C3000CF9008954E815F8168857985452B462B2D
:101C4000472B21F40F900FBE80E0E5CF811104C037
:101C5000CE0101960E94871B0F900FBE0E94861630
:101C60000FB6F8940F92F80181A18F3F09F411A2E9
:101C7000F80182A18F3F09F412A20F900FBEBE019E
:101C80006A5F7F4FCE0101960E94981B81111DC093
:101C9000C8010E94970A882391F04E815F81688570
:101CA0007985C6010E94E219C8010E94060B0E94B4
:101CB000D417811102C00E94C02081E08FCFC801DB
:101CC0000E94060B0E94D417F8CFC8010E94060B91
:101CD0000E94D417C8010E94970A882371F3B4CFD9
:101CE000EF92FF920F931F93CF93DF93FC01068D2A
:101CF000002321F17A01EC0111A10E94EC0A0150AC
:101D00000E8F1F3FC1F48885811102C081E00CC095
:101D1000CE0108960E94431A8823C1F3E114F1040E
:101D2000A9F381E0F7018083DF91CF911F910F919B
:101D3000FF90EF9008951F5F19A3E8CF80E0F4CFE4
:101D40000F931F93CF93DF93FC01268D222369F01D
:101D5000EC01068117810E94EC0A1F830E8381E04B
:101D6000DF91CF911F910F91089580E0F9CF0FB6C9
:101D7000F8940F92FC01868D0F900FBE08950FB658
:101D8000F8940F92FC01268D0F900FBE878D821B59
:101D90000895FC01868D08950C94EC09FC01968D44
:101DA00081E0911180E00895FC01968D81E0278DFE
:101DB000291380E00895FC014481558122813381FB
:101DC000240F351F80819181B901681B790BCB01EC
:101DD0006417750710F0841B950B0895AF92BF929E
:101DE000CF92DF92EF92FF920F931F93CF93DF93E7
:101DF0006C015B017A01E901FC0104811581021B80
:101E0000130B4017510708F48A01F6018485958564
:101E1000A801B5018C0F9D1F0E94CF210E151F0533
:101E200058F4A701401B510BB501600F711FF6015B
:101E3000848595850E94CF21CE018E0D9F1DF601D0
:101E4000248135818217930710F0821B930BDF9159
:101E5000CF911F910F91FF90EF90DF90CF90BF90A7
:101E6000AF900895CF92DF92EF92FF920F931F935E
:101E7000CF93DF9300D0CDB7DEB77C016B015A83DF
:101E80004983FC0182819381468540FF29C0201748
:101E9000310718F19C0142E050E0BE016F5F7F4FB7
:101EA000C7010E94EE0E49815A814115510541F04A
:101EB0009C01B601C7010E94EE0EF7019383828355
:101EC00089819A810F900F90DF91CF911F910F918F
:101ED000FF90EF90DF90CF9008951A821982E3CFA0
:101EE00049815A812417350708F4A9015A83498387
:101EF000DACFAF92BF92CF92DF92EF92FF920F9321
:101F00001F93CF93DF936C015B017A01E901FC0120
:101F100004811581021B130B4017510708F48A0135
:101F2000F601648575856C0F7D1FA801C5010E94AF
:101F3000CF210E151F0558F4A701401B510BF601C8
:101F400064857585C501800F911F0E94CF21CE0148
:101F50008E0D9F1DF601248135818217930710F0A5
:101F6000821B930BDF91CF911F910F91FF90EF9008
:101F7000DF90CF90BF90AF900895AF92BF92CF9275
:101F8000DF92EF92FF920F931F93CF93DF9300D0D6
:101F9000CDB7DEB77C015B016A018901FC012081BC
:101FA0003181868580FF12C042E050E0BE016F5F44
:101FB0007F4FC7010E94790F9C0189819A8102504D
:101FC0001109C816D906F8F4D12CC12CC016D106B7
:101FD00008F486010115110541F0A801B501C701FA
:101FE0000E94790FF70191838083C8010F900F90B1
:101FF000DF91CF911F910F91FF90EF90DF90CF90E5
:10200000BF90AF9008956C01E1CFFF920F931F93A3
:10201000CF93DF93EC018B01F42E672B11F401E0D9
:1020200010E0F0E0E0E0C03F8FEFD807C8F4CE0149
:1020300040960E94B409FC01892B91F08DE0DF01EC
:102040001D928A95E9F7CF010F969587848721968F
:10205000D583C4831783068381E0F81280E08687E6
:10206000CF01DF91CF911F910F91FF900895FC0157
:10207000268521FF0C94EC092FE011922A95E9F7AF
:102080000895FC010FB6F8940F9280859185892BF5
:10209000C9F482859385892BA9F48681978124814F
:1020A0003581448555856DE0DF011D926A95E9F71C
:1020B00055874487358324839783868381E00F90F7
:1020C0000FBE089580E0FBCF6115710511F461E04A
:1020D00070E0FC01248135816217730720F4778357
:1020E000668381E0089580E00895FC0124813581B4
:1020F000808191816081718142815381A081B18110
:10210000A817B907A9F7C9010197860F971F841B64
:10211000950B8217930710F0821B930B08950C9474
:10212000DB0E2F923F924F925F926F927F928F922F
:102130009F92AF92BF92CF92DF92EF92FF920F9356
:102140001F93CF93DF93CDB7DEB72B970FB6F894DD
:10215000DEBF0FBECDBF4C017B876A871A010E839D
:102160001F8328873987FC01848195810197268503
:102170003A0120FF5DC0F2E06F0E711C86159705D5
:1021800020F41E821F82188619868E819F81A88561
:10219000B985892B8A2B8B2B09F050C0C4010E9472
:1021A00075102C0183019201A1016A857B85C40110
:1021B0000E94320F3C01892B09F1C4010E94DB0E01
:1021C000F4012681378182179307C0F00E9486169A
:1021D000F40180859185892B79F080859185F12C9A
:1021E000E12C10E000E020E030E0A90160E00E9476
:1021F000391DF401118610860E94D417C3012B9655
:102200000FB6F894DEBF0FBECDBFDF91CF911F9107
:102210000F91FF90EF90DF90CF90BF90AF909F9085
:102220008F907F906F905F904F903F902F90089588
:102230008417950708F0A9CF3C01A7CFCE010196DE
:102240000E94711B0FB6F8940F92C4010E94751082
:102250002C018615970560F560E090E080E00E9413
:10226000DA1F0E94EE1BF401938782870F900FBE46
:10227000AE80BF80C884D984F12CE12C00E010E04E
:10228000980140E050E0BA0180E00E94911CF40106
:1022900013861286BE016A5F7F4FCE0101960E94AF
:1022A000981B882379F24114510409F477CF7ACF2F
:1022B0000F900FBEF8CFAF92BF92CF92DF92EF9206
:1022C000FF920F931F93CF93DF93EC015B017A0191
:1022D00069018E858A0180FF02C00E5F1F4FCE010B
:1022E0000E9475109C01A701B501CE010E94320F1A
:1022F0005C01892BD1F0CE010E94DB0E2E813F8143
:102300008217930790F088859985892B71F08885CD
:102310009985F12CE12C10E000E020E030E0A901EB
:1023200060E00E94201E19861886C501DF91CF91BA
:102330001F910F91FF90EF90DF90CF90BF90AF90E3
:1023400008954F925F926F927F928F929F92AF9279
:10235000BF92CF92DF92EF92FF920F931F93CF9392
:10236000DF93EC012B013A01580169018E85912C14
:10237000812C80FF03C082E0882E912CA114B1042F
:10238000C104D10429F10FB6F8940F92CE010E9436
:10239000DB0E8C018816990648F060E090E080E042
:1023A0000E94DA1F0E94EE1B998788870F900FBE4C
:1023B0008016910640F1F12CE12C00E010E098012C
:1023C00040E050E0BA0180E00E94911C1986188616
:1023D000CE010E94DB0E8C0188169906A0F0D12C4C
:1023E000C12CC601DF91CF911F910F91FF90EF900B
:1023F000DF90CF90BF90AF909F908F907F906F9025
:102400005F904F9008959801A301B201CE010E9400
:10241000BD0F6C01892B19F30E9486168A859B8556
:10242000892B71F08A859B85F12CE12C10E000E06E
:1024300020E030E0A90160E00E94391D1B861A8669
:102440000E94D417CECF0F931F93CF93DF9300D06A
:10245000CDB7DEB7FC01268520FD09C090E080E005
:102460000F900F90DF91CF911F910F9108958C01E4
:102470000E94DB0E039790F3F8012081318142E046
:1024800050E0BE016F5F7F4FC8010E94790F8981C4
:102490009A81E6CFAF92BF92CF92DF92EF92FF92F6
:1024A0000F931F93CF93DF93EC015B017A016901D6
:1024B0008E8510E000E080FF02C002E010E0CE0157
:1024C0000E94DB0E0817190770F0B12CA12CC50172
:1024D000DF91CF911F910F91FF90EF90DF90CF9000
:1024E000BF90AF9008959C01A701B501CE010E9455
:1024F000BD0F5C01892B49F38A859B85892B39F3B4
:102500008A859B85F12CE12C10E000E020E030E092
:10251000A90160E00E94201E1B861A86D8CFFC010C
:10252000208131814281538181E04217530709F0B4
:1025300080E00895CF93DF93FC012685D0E0C0E0D2
:1025400020FF02C0C2E0D0E00E94751021E0C81751
:10255000D90708F420E0822FDF91CF910895CF9220
:10256000DF92EF92FF920F931F93CF93DF93FC01C3
:1025700020853185232BD1F06B01EC01808591857D
:10258000F12CE12C10E000E020E030E0A90160E057
:102590000E94201E1986188681E0DF91CF911F913D
:1025A0000F91FF90EF90DF90CF90089580E0F5CFEE
:1025B000CF92DF92EF92FF920F931F93CF93DF930F
:1025C000FC0122853385232BD1F06B01EC01828540
:1025D0009385F12CE12C10E000E020E030E0A9012F
:1025E00060E00E94201E1B861A8681E0DF91CF9159
:1025F0001F910F91FF90EF90DF90CF90089580E0B2
:10260000F5CFE091CE06F091CF06808181110CC00C
:102610008FEF9FEFDC018093980690939906A0932B
:102620009A06B0939B060895E091CE06F091CF06EE
:102630000780F085E02D80819181A281B381EBCF6D
:102640008F929F92AF92BF92CF92DF92EF92FF92C2
:10265000CF936B017C01C42F8090A5069090A606B5
:10266000A090A706B090A80680919306909194063A
:1026700002960E94730A8FEFC816D806E806F8067D
:1026800009F042C0CC2309F43FC0E091AB06F091C1
:10269000AC06A0919306B09194061796FC93EE9326
:1026A0001697A0919306B09194068681978119960A
:1026B0009C938E9318978091930690919406A6818F
:1026C000B781029615969C938E93149780919306EA
:1026D00090919406029697838683E0919306F091F9
:1026E00094068AEA96E0958784878091AA068F5F90
:1026F0008093AA06CF91FF90EF90DF90CF90BF908C
:10270000AF909F908F900895C80CD91CEA1CFB1CB9
:10271000E0919306F0919406C282D382E482F5821E
:102720006091930670919406C814D904EA04FB04DE
:1027300088F48091CC069091CD066E5F7F4FCF914B
:10274000FF90EF90DF90CF90BF90AF909F908F90D1
:102750000C94300A8091CE069091CF066E5F7F4F29
:102760000E94300A8091980690919906A0919A064D
:10277000B0919B06C816D906EA06FB0608F0BACF48
:10278000C0929806D0929906E0929A06F0929B0623
:10279000B1CF8091B506811107C08091E6068230E5
:1027A000C0F30E94C020F5CF0FB6F8940F92E091CD
:1027B000BD06F091BE06C085D185CE0102960E946D
:1027C000730A8091A90681508093A9068091B5066D
:1027D00081508093B5060F900FBE8B8D9C8D0E940B
:1027E000EC09CE010E94EC09D4CF4F925F926F9218
:1027F0007F928F929F92AF92BF92CF92DF92EF9291
:10280000FF920F93CF93DF934C016B015A01290183
:10281000CA010E94B4093C01892BB1F08AE290E020
:102820000E94B409EC01892B61F07C8E6B8E81E0F3
:10283000A81AB108A60CB71CC114D104B1F41D8E9E
:1028400029C0C3010E94EC098FEFDF91CF910F9156
:10285000FF90EF90DF90CF90BF90AF909F908F90C0
:102860007F906F905F904F900895F601AE01435EA8
:102870005F4FC60108962191DA012D93AD019F01AA
:1028800021503109D9012C91222319F0E817F907B9
:1028900091F71CA2053008F004E00A8F6E01B2E047
:1028A000CB0ED11CC6010E940C0ACE010E960E94CE
:1028B0000C0ADB87CA8785E090E0A0E0B0E0801BCF
:1028C0009109A109B1098E879F87A88BB98BDF8BEE
:1028D000CE8B84E0FE01B596DF011D928A95E9F763
:1028E00019A6A201B401C5010E941E209983888304
:1028F000E114F10419F0F701D183C0830FB6F89405
:102900000F928091A9068F5F8093A906809193060C
:1029100090919406892B09F081C0D0939406C093BE
:1029200093068091A9068130A1F586EE96E00E947B
:10293000FB0981EF96E00E94FB098CEF96E00E9474
:10294000FB0987E097E00E94FB0982E197E00E9483
:10295000FB098BED96E00E94FB0980ED96E00E945A
:10296000FB0981EC96E00E94FB0986EB96E00E9451
:10297000FB098AEA96E00E94FB098BED96E09093B2
:10298000CF068093CE0680ED96E09093CD0680939F
:10299000CC0680919C068F5F80939C06AA8D8091C7
:1029A000A4068A1710F4A093A4062BE02A9FD00156
:1029B0001124AA51B94F11960D90BC91A02DBF833F
:1029C000AE8316968D919C91179799878887169656
:1029D0008D919C911797FC01D582C4821796DC9249
:1029E000CE9216979A8D929FF0011124EA51F94FD9
:1029F000FD87EC8780818F5F80830F900FBE809171
:102A0000A306882349F0E0919306F0919406828D05
:102A1000891710F40E94C02081E017CF8091A3068F
:102A20008111B7CFE0919306F0919406928D8A8D33
:102A3000891708F4AECFD0939406C0939306A9CF1C
:102A40000F931F93CF93DF93EC010FB6F8940F927F
:102A5000892B21F4C0919306D09194068E010E5FCC
:102A60001F4FC8010E94730A888D998D892B21F010
:102A7000CE010E960E94730A80919C068F5F809310
:102A80009C0680919306909194068C179D0761F5A2
:102A9000B80186EB96E00E94100A8091B5068F5F20
:102AA0008093B5060F900FBE809193069091940687
:102AB0008C179D0739F08B8D9C8D0E94EC09CE01FF
:102AC0000E94EC098091A306882349F08091930627
:102AD000909194068C179D0711F40E94C020DF91FD
:102AE000CF911F910F9108958091A90681508093F5
:102AF000A9060E940113D6CF0F931F93CF93DF93A4
:102B0000EC0180919306909194068C179D0709F42F
:102B100055C0209709F452C00FB6F8940F928C85D7
:102B20009D858A5A964009F047C0888D998DE6E0C8
:102B3000813C9E0709F440C0892BF1F58E010E5FA0
:102B40001F4FC8010E94730AAA8D8091A4068A179C
:102B500010F4A093A4062BE02A9FD0011124AA51BF
:102B6000B94F11960D90BC91A02DBF83AE831696E0
:102B70008D919C9117979987888716968D919C9136
:102B80001797FC011583048317961C930E931697D1
:102B90009A8D929FF0011124EA51F94FFD87EC873D
:102BA00080818F5F8083E0919306F0919406828DFF
:102BB000981710F00E94C0200F900FBEDF91CF91A8
:102BC0001F910F910895EF92FF921F93CF93DF9380
:102BD000EC018C859D858A5A964009F05EC0888DEF
:102BE000998D26E0813C920709F457C0892B09F0A2
:102BF00054C080919506811149C0E0919306F091EF
:102C000094069A8D828D10E0981720F081E08093D1
:102C10009E0611E07E0182E0E80EF11CC7010E94D1
:102C2000730AAA8D8091A4068A1710F4A093A406B3
:102C30008BE08A9FD0011124AA51B94F11960D90B3
:102C4000BC91A02DBF83AE8316962D913C91179712
:102C5000398728871696ED91FC911797F582E482C3
:102C60001796FC92EE921697EA8DE89FF0011124D8
:102C7000EA51F94FFD87EC8780818F5F8083812F38
:102C8000DF91CF911F91FF90EF900895BE01625F99
:102C90007F4F81EC96E00E94100A10E0F0CFEF9297
:102CA000FF920F9386E9E82E86E0F82E00E030E0F0
:102CB00020E045E550E064E970E089EC93E10E9492
:102CC000F5138130C1F4F8944FEF5FEFBA014093F0
:102CD00098065093990660939A0670939B0680938A
:102CE000A3061092A5061092A6061092A7061092AF
:102CF000A8060E948A20809160000F91FF90EF90BB
:102D00000895F8941092A3060C94BF208091950624
:102D10008F5F8093950608950FB6F8940F92609197
:102D2000A5067091A6068091A7069091A8060F901F
:102D30000FBE08956091A5067091A6068091A70622
:102D40009091A80608958091A9060895009721F40E
:102D500080919306909194064D960895CF92DF92BC
:102D6000EF92FF920F931F93CF93DF93809195067D
:102D7000811105C1C090A506D090A606E090A706D7
:102D8000F090A8068FEFC81AD80AE80AF80AC0928D
:102D9000A506D092A606E092A706F092A806C11456
:102DA000D104E104F104B9F48091CE069091CF06EC
:102DB0002091CC063091CD063093CF062093CE06DD
:102DC0009093CD068093CC0680919D068F5F809373
:102DD0009D060E9401138091980690919906A091FA
:102DE0009A06B0919B06C816D906EA06FB06E8F4D7
:102DF00080E0E0919306F0919406E28DDBE0ED9F98
:102E0000F0011124EA51F94F9081923008F081E0ED
:102E100090919E06911181E0DF91CF911F910F91CA
:102E2000FF90EF90DF90CF90089580E04BE0E0912D
:102E3000CE06F091CF06908191110CC04FEF5FEF5D
:102E4000BA01409398065093990660939A0670933E
:102E50009B06CFCFE091CE06F091CF060780F0859C
:102E6000E02D0084F185E02D0281138124813581DC
:102E7000C016D106E206F30648F4009398061093B4
:102E8000990620939A0630939B06B3CFA485B58507
:102E90002681378160857185E9017F836E83C085D6
:102EA000D1853D832C839F012E5F3F4F11966D91FD
:102EB0007C9112976217730721F41296DC93CE93DC
:102EC0001197158614869C9191509C93A08DB18D7D
:102ED0001097F1F06289738904891589EB011F83CA
:102EE0000E83C489D5897D836C8311960D911C91C5
:102EF0001297BF01625F7F4F0617170721F41296E2
:102F0000DC93CE931197118E108E9C9191509C93CF
:102F1000A28D9091A4069A1710F4A093A4064A9F3C
:102F2000D0011124AA51B94F11960D90BC91A02D3A
:102F3000B783A68316966D917C91179771876087EA
:102F40001696CD91DC9117973D832C8317963C9371
:102F50002E931697228D249FD0011124AA51B94F88
:102F6000B587A4879C919F5F9C93E0919306F09115
:102F70009406928D291708F45ACF81E058CF80919A
:102F80009F069091A006A091A106B091A20601967D
:102F9000A11DB11D80939F069093A006A093A1064A
:102FA000B093A20680E038CFCF92DF92EF92FF92EB
:102FB000CF93DF930FB6F8940F92809195068150CE
:102FC0008093950680919506882351F080E00F90BC
:102FD0000FBEDF91CF91FF90EF90DF90CF900895DB
:102FE0008091A906882391F3C090C806D090C906A5
:102FF000F0E0E0E03BE041E08091C10681112EC0AD
:10300000EF2B11F00E940113C0909F06D090A006F4
:10301000E090A106F090A206C114D104E104F104ED
:10302000A1F0C1E00E94AE168111C0939E06D1E0CE
:10303000CD1AD108E108F108A9F710929F06109265
:10304000A0061092A1061092A20680919E068823E7
:1030500009F4BCCF0E94C02081E0B9CFD6011896F8
:10306000ED91FC91A08DB18D6289738984899589D8
:10307000EB019F838E8384899589EC017D836C832A
:10308000BF01625F7F4F1196ED90FC901297E6169C
:10309000F70621F412969C938E931197118E108E41
:1030A0008C9181508C93A485B585868197816085AC
:1030B0007185EC017F836E8360857185EB019D8353
:1030C0008C83CF0102961196ED90FC901297E81632
:1030D000F90621F412967C936E9311971586148647
:1030E0002C9121502C93A28D2091A4062A1710F424
:1030F000A093A4063A9FD0011124AA51B94F11966A
:103100000D90BC91A02DB783A68316966D917C91EE
:1031100017977187608716966D917C911797EB01D1
:103120009D838C8317969C938E931697928D939F75
:10313000D0011124AA51B94FB587A4878C918F5F14
:103140008C93A0919306B09194065A968C919817FF
:1031500008F452CF40939E064FCF8F929F92AF922A
:10316000BF92CF92DF92EF92FF920F931F93CF9374
:10317000DF93EC016A017B010E9486168090A50610
:103180009090A606A090A706B090A8060881198185
:103190002A813B81C00ED11EE21EF31E80169106CD
:1031A000A206B30678F5C016D106E206F30630F49F
:1031B00011E08C149D04AE04BF0408F010E0C88236
:1031C000D982EA82FB82112349F0C701B60168194E
:1031D00079098A099B0940E00E9420130E94D417B4
:1031E000811102C00E94C020812FDF91CF911F91D9
:1031F0000F91FF90EF90DF90CF90BF90AF909F9096
:103200008F900895C016D106E206F30688F611E005
:10321000D6CFCF92DF92EF92FF926B017C01C11467
:10322000D104E104F10439F40E94C020FF90EF9032
:10323000DF90CF9008950E94861640E0C701B60146
:103240000E9420130E94D417882371F3EFCFCF92EE
:10325000DF92EF92FF926B017C010E9486168091B3
:103260009F069091A006A091A106B091A206C80E5B
:10327000D91EEA1EFB1EC0929F06D092A006E092C5
:10328000A106F092A206FF90EF90DF90CF900C94F1
:10329000D41780919506882321F081E080939E06C3
:1032A000089510929E062091A4068BE0422F50E0D4
:1032B000849FF001859FF00D1124EA51F94F908110
:1032C000992349F1A181B28114960D90BC91A02D52
:1032D000B283A183289FC00111248751994FA81759
:1032E000B90729F414968D919C91928381838BE088
:1032F000849FF001859FF00D1124EA51F94F018060
:10330000F281E02D808591859093940680939306B9
:103310002093A40608952150C9CF0F931F93CF93F4
:10332000DF93EC010FB6F8940F92892B21F4C09132
:103330009306D09194068E010E5F1F4FC8010E9424
:10334000730A888D998D892B21F0CE010E960E94EB
:10335000730AB8018AEA96E00E94100A89A58130B2
:1033600009F419A60F900FBE8091A306882339F0A7
:103370000FB6F8940F920E9401130F900FBE809128
:103380009306909194068C179D0731F48091A306C3
:10339000882339F00E94C020DF91CF911F910F91B7
:1033A00008959091AA068091A906981305C01092DD
:1033B000940610929306F0CFDF91CF911F910F9159
:1033C0000C944919CF92DF92EF92FF926A017B0130
:1033D0006091930670919406625F7F4F0E94300A5D
:1033E00041E0C701B601FF90EF90DF90CF900C94C1
:1033F00020130F931F93CF93DF93FC01A0919306AB
:10340000B091940670681E964D935D936D937C9376
:103410005197A181B281C0919306D0919406BB8B44
:10342000AA8BC0919306D091940616968D919C918B
:1034300017979D8B8C8B809193069091940616968E
:10344000CD91DC9117970E969D838C838091930686
:10345000909194060E9617969C938E931697A09132
:103460009306B09194065996FC93EE9358978081F9
:103470008F5F808341E0C901B801DF91CF911F9137
:103480000F910C942013CF93DF93DC011796ED91ED
:10349000FC910084F185E02DA08DB18D8289938906
:1034A00024893589EC013F832E83C489D5899D8386
:1034B0008C83CF010E9611962D913C91129728176F
:1034C000390721F41296DC93CE931197118E108E4A
:1034D0002C9121502C9320919506211157C0A48541
:1034E000B5858681978120853185EC013F832E83C8
:1034F000C085D1859D838C83CF01029611962D9135
:103500003C9112972817390721F41296DC93CE9339
:103510001197158614862C9121502C93C28D2091E1
:10352000A4062C1710F4C093A4062BE02C9FE001F6
:103530001124CA51D94F0980DA81C02DD783C6839F
:103540004E815F8151874087AE81BF8115969C93E4
:103550008E9314979F838E83A28DA29FD0011124F6
:10356000AA51B94FB587A4878C918F5F8C93A09196
:103570009306B0919406928D5A968C91891730F5E6
:1035800081E080939E06DF91CF910895A091C206BD
:10359000B091C306B38BA28B16962D913C911797D1
:1035A000358B248B1696CD91DC9117979D838C8358
:1035B00017969C938E93169781EC96E0918F808F4F
:1035C0008091C1068F5F8093C106D1CF80E0DBCFB1
:1035D000CF93DF93DC0170684D935D936D937C9383
:1035E00013971896ED91FC9119971A964D915C914D
:1035F0001B9714962D913C91159716968D919C9141
:103600001797E9019F838E8316968D919C9117974A
:10361000EC013D832C83EA0129813A812A173B077B
:1036200011F49A8389831B961C921E921A97DA01D1
:103630008C9181508C93A485B58586819781208556
:103640003185EC013F832E83C085D1859D838C839A
:10365000CF01029611962D913C91129728173907A8
:1036600021F41296DC93CE931197158614862C9133
:1036700021502C93C28D2091A4062C1710F4C093D6
:10368000A4064BE04C9FE0011124CA51D94F098098
:10369000DA81C02DD783C6832E813F813187208771
:1036A0002E813F81D90115969C938E9314979F8309
:1036B0008E83928D949FD0011124AA51B94FB58762
:1036C000A4878C918F5F8C93E0919306F091940680
:1036D000828D891718F481E080939E06DF91CF9147
:1036E00008950FB6F8940F9220919D06FC01208357
:1036F0004091A5065091A6066091A7067091A80674
:1037000041835283638374830F900FBE0895209189
:103710009D06FC0120834091A5065091A60660916C
:10372000A7067091A806418352836383748308952A
:10373000CF92DF92EF92FF920F931F93CF93DF937D
:10374000FB010FB6F8940F920091A5061091A60602
:103750002091A7063091A806408151816281738132
:103760004F3FAFEF5A076A077A0791F1EC01C98022
:10377000DA80EB80FC80A0919D06B881BA17A9F091
:103780000C151D052E053F0580F010821182128256
:10379000138281E00F900FBEDF91CF911F910F91A7
:1037A000FF90EF90DF90CF9008950C191D092E091E
:1037B0003F09041715072607370738F7401B510B39
:1037C000620B730B40835183628373830E94871B58
:1037D00080E0E0CF81E080939E060895809193067B
:1037E000909194060895E0919306F0919406468591
:1037F000578560897189A0919306B0919406E091F4
:103800009306F09194065A962C9185E090E0A0E002
:10381000B0E0821B9109A109B10986879787A08B27
:10382000B18BCB01BA0108958F929F92AF92BF9254
:10383000CF92DF92EF92FF920F931F93CF93DF937C
:10384000C82FF62ECA01B9010FB6F8940F92E09175
:103850009306F0919406D0E08E01000F111F000F27
:10386000111FE00FF11F85A096A0A7A0B0A4892882
:103870008A288B2891F4E0919306F0919406EC0F3E
:10388000FD1F21E021A7611571058105910529F032
:1038900041E00E9420130E94C0200F900FBE0FB67F
:1038A000F8940F92E0919306F0919406E00FF11FC7
:1038B00065A176A187A190A5611571058105910586
:1038C00069F02091930630919406020F131FFF2098
:1038D000D9F0F80115A216A217A210A620919306FE
:1038E00030919406C20FD31F19A60F900FBEDF911F
:1038F000CF911F910F91FF90EF90DF90CF90BF90ED
:10390000AF909F908F9008956B017C01F1E0CF1AEA
:10391000D108E108F108F801C5A2D6A2E7A2F0A6F5
:10392000DDCF4F925F926F927F92AF92BF92CF9214
:10393000DF92EF92FF920F931F93CF93DF932801B3
:1039400039010FB6F8940F92E0919306F091940626
:10395000C82FD0E0EC0FFD1F81A5823079F1809156
:10396000930690919406FE01EE0FFF1FEE0FFF1FCE
:10397000E80FF91F85A196A1A7A1B0A54095509584
:103980006095709584239523A623B72385A396A3DA
:10399000A7A3B0A7E0919306F0919406EC0FFD1F4A
:1039A00081E081A7A114B104C104D10439F041E040
:1039B000C601B5010E9420130E94C0200F900FBEC7
:1039C0000FB6F8940F92E114F104A1F0E091930680
:1039D000F0919406CE01880F991F880F991FE80F68
:1039E000F91F85A196A1A7A1B0A5F70180839183B6
:1039F000A283B383E0919306F0919406EC0FFD1F30
:103A000081A58230A1F5E0919306F0919406CE0154
:103A1000880F991F880F991FE80FF91F85A196A19C
:103A2000A7A1B0A5409450946094709484219521EE
:103A3000A621B72185A396A3A7A3B0A781E02091D3
:103A4000930630919406C20FD31F19A60F900FBE94
:103A5000DF91CF911F910F91FF90EF90DF90CF906A
:103A6000BF90AF907F906F905F904F90089580E0EF
:103A7000E6CF8F929F92AF92BF92CF92DF92EF925A
:103A8000FF920F931F93CF93DF93DC010FB6F8944F
:103A90000F9270E0E114F10481F0FB01EE0FFF1FC3
:103AA000EE0FFF1FE80FF91F85A096A0A7A0B0A4F6
:103AB000E70188829982AA82BB82FD01E60FF71F87
:103AC00081A592E091A70230110509F440C0B0F43D
:103AD0000130110541F1813009F44DC081E00F90B2
:103AE0000FBEDF91CF911F910F91FF90EF90DF906C
:103AF000CF90BF90AF909F908F90089503301105A5
:103B000031F00430110539F7823009F497C0660F9F
:103B1000771F660F771FFD01E60FF71F25A336A35A
:103B200047A350A7D8CF660F771F660F771FFD01F9
:103B3000E60FF71FC5A0D6A0E7A0F0A4C22AD32A9B
:103B4000E42AF52AC5A2D6A2E7A2F0A6C4CF660F42
:103B5000771F660F771FFD01E60FF71F45A156A1DE
:103B600067A170A54F5F5F4F6F4F7F4F45A356A36F
:103B700067A370A7B0CF1C96ED91FC911D97169688
:103B80008D919C91179718962D913C911997EC0166
:103B90003F832E831896CD91DC9119979D838C835A
:103BA0009D012E5F3F4F818192818217930711F40F
:103BB000D283C1831D961C921E921C9780818150D6
:103BC00080835A96CC915A978091A4068C1710F452
:103BD000C093A4064BE04C9FE0011124CA51D94F79
:103BE0000980DA81C02D1796DC93CE9316978E81CB
:103BF0009F8119969C938E9318978E819F81FC01CB
:103C0000358324833F832E835A969C915A97949FA1
:103C1000F0011124EA51F94F1D96FC93EE931C9785
:103C200080818F5F8083E0919306F0919406828D6E
:103C3000891708F053CF0E94C02050CF80E04FCFAB
:103C40008F929F92AF92BF92CF92DF92EF92FF92AC
:103C50000F931F93CF93DF93DC0170E0E114F10425
:103C600081F0FB01EE0FFF1FEE0FFF1FE80FF91FA2
:103C700085A096A0A7A0B0A4E70188829982AA8215
:103C8000BB82FD01E60FF71F81A592E091A70230EC
:103C90001105F1F1A0F40130110531F1813009F481
:103CA0004BC081E0DF91CF911F910F91FF90EF907A
:103CB000DF90CF90BF90AF909F908F90089503308A
:103CC000110531F00430110549F7823009F4C5C0FF
:103CD000660F771F660F771FFD01E60FF71F25A3FD
:103CE00036A347A350A7DACF660F771F660F771F5B
:103CF000FD01E60FF71F85A096A0A7A0B0A4822A19
:103D0000932AA42AB52A85A296A2A7A2B0A6C6CFB6
:103D1000660F771F660F771FFD01E60FF71F45A19E
:103D200056A167A170A54F5F5F4F6F4F7F4F45A3AF
:103D300056A367A370A7B2CF8091950681116BC07F
:103D40001C96ED91FC911D9716968D919C9117975D
:103D500018962D913C911997EC013F832E8318966C
:103D6000CD91DC9119979D838C839D012E5F3F4FF0
:103D7000818192818217930711F4D283C1831D96AA
:103D80001C921E921C978081815080835A96CC9100
:103D90005A978091A4068C1710F4C093A4068BE068
:103DA0008C9FE0011124CA51D94F0980DA81C02DBE
:103DB0001796DC93CE9316974E815F8119965C938C
:103DC0004E931897EE81FF81358324833F832E83A2
:103DD0005A96EC915A97E89FF0011124EA51F94F55
:103DE0001D96FC93EE931C9780818F5F8083E091FA
:103DF0009306F09194065A969C91828D891708F04B
:103E000050CFC114D10419F081E0F601808381E024
:103E100080939E0647CFE091C206F091C306539669
:103E2000FC93EE9352978681978155969C938E933F
:103E30005497C681D781CD010E969D838C8397833D
:103E4000868381EC96E059969C938E935897809147
:103E5000C1068F5F8093C106CACF80E023CF0F9346
:103E60001F93CF93DF93FC01A62FB0E0EC01CA0FA4
:103E7000DB1F89A592E099A7AA0FBB1FAA0FBB1F42
:103E8000AE0FBF1F95960D911D912D913C91989766
:103E90000F5F1F4F2F4F3F4F95960D931D932D93FF
:103EA0003C939897813009F05EC08091950681110E
:103EB0005FC0A485B5858681978120853185EC0119
:103EC0003F832E83C085D1859D838C83CF0102964D
:103ED00011962D913C9112972817390721F41296CB
:103EE000DC93CE931197158614862C9121502C9338
:103EF000C28D2091A4062C1710F4C093A4062BE0C9
:103F00002C9FE0011124CA51D94F0980DA81C02DBC
:103F1000D783C6836E817F8171876087AE81BF81C1
:103F200015969C938E9314979F838E83A28DA29F48
:103F3000D0011124AA51B94FB587A4878C918F5F06
:103F40008C93A0919306B0919406928D5A968C9181
:103F5000891748F44115510519F081E0FA01808371
:103F600081E080939E06DF91CF911F910F9108957C
:103F7000A091C206B091C306B38BA28B16968D9109
:103F80009C911797958B848B1696CD91DC91179702
:103F9000CF010E969D838C8317969C938E931697D4
:103FA00081EC96E0918F808F8091C1068F5F809326
:103FB000C106C7CF009721F4809193069091940693
:103FC0000FB6F8940F92FC01E60FF11D81A5823027
:103FD00029F411A681E00F900FBE089580E0FBCF79
:103FE000CF92DF92EF92FF92009721F48091930697
:103FF000909194060FB6F8940F9274E0679FF001C9
:104000001124E80FF91F65A176A187A190A5C5A08D
:10401000D6A0E7A0F0A42095309540955095C222F7
:10402000D322E422F522C5A2D6A2E7A2F0A60F90E1
:104030000FBEFF90EF90DF90CF90089531E1FC012B
:104040003083319722E220833197A3E3A083319715
:1040500060833197708331971082319760E8608375
:1040600031971082319762E06083319763E060831B
:10407000319764E06083319765E06083319766E053
:104080006083319767E06083319768E060833197A0
:1040900069E06083319760E16083319730833197C5
:1040A00032E13083319733E13083319734E130832B
:1040B000319735E13083319736E13083319737E1FD
:1040C0003083319738E13083319739E1308331974C
:1040D00030E23083319731E230833197208331975A
:1040E00023E220833197408331975083319726E232
:1040F0002083319727E22083319728E2208331976C
:1041000029E22083319720E32083319721E3208324
:10411000869708951BBC89EF8ABD8BE08EBD89B759
:10412000806189BFA0919306B0919406CD91CDBFD7
:10413000DD91DEBFFF91EF91DF91CF91BF91AF9104
:104140009F918F917F916F915F914F913F912F91AF
:104150001F910F91FF90EF90DF90CF90BF90AF90A5
:104160009F908F907F906F905F904F903F902F9097
:104170001F900F900FBE0F90089581E0089508954D
:104180000F920FB6F8940F921F9211242F923F9224
:104190004F925F926F927F928F929F92AF92BF9257
:1041A000CF92DF92EF92FF920F931F932F933F9343
:1041B0004F935F936F937F938F939F93AF93BF932F
:1041C000CF93DF93EF93FF93A0919306B091940662
:1041D0000DB60D920EB60D920E944919A09193064C
:1041E000B0919406CD91CDBFDD91DEBFFF91EF91EF
:1041F000DF91CF91BF91AF919F918F917F916F91FF
:104200005F914F913F912F911F910F91FF90EF90F0
:10421000DF90CF90BF90AF909F908F907F906F90E6
:104220005F904F903F902F901F900F900FBE0F9078
:1042300008950F920FB6F8940F921F9211242F92A7
:104240003F924F925F926F927F928F929F92AF9226
:10425000BF92CF92DF92EF92FF920F931F932F9313
:104260003F934F935F936F937F938F939F93AF93FE
:10427000BF93CF93DF93EF93FF93A0919306B091F9
:1042800094060DB60D920EB60D920E94AE168111D7
:104290000E944919A0919306B0919406CD91CDBF8B
:1042A000DD91DEBFFF91EF91DF91CF91BF91AF9193
:1042B0009F918F917F916F915F914F913F912F913E
:1042C0001F910F91FF90EF90DF90CF90BF90AF9034
:1042D0009F908F907F906F905F904F903F902F9026
:1042E0001F900F900FBE0F9008950E9419211895EE
:1042F000F12CE12C03E030E020E045E550E069E8F6
:1043000070E089E490E00E94F51302E030E020E0E4
:1043100045E550E06EE870E086E690E00E94F51317
:1043200001E030E020E045E550E061E970E08CEA32
:1043300090E00E94F5130E944F16FFCFA1E21A2EC3
:10434000AA1BBB1BFD010DC0AA1FBB1FEE1FFF1F39
:10435000A217B307E407F50720F0A21BB30BE40B89
:10436000F50B661F771F881F991F1A9469F76095D0
:104370007095809590959B01AC01BD01CF0108958A
:10438000A29FB001B39FC001A39F700D811D112496
:10439000911DB29F700D811D1124911D0895FB0187
:1043A000DC0102C001900D9241505040D8F70895B1
:0443B000F894FFCFAF
:1043B4000439003600330030003B00380035003249
:1043C400003A00370034003100313233413435369D
:1043D40042373839432A302344496E6974005431D2
:0A43E4000054320049444C4500002B
:00000001FF
