:100000000C942A000C940B010C9434010C945D01A7
:100010000C9447000C9447000C9447000C94470044
:100020000C9447000C9447000C94A0020C944700D9
:100030000C9447000C9447000C9447000C94470024
:100040000C9447000C9447000C9447000C94470014
:100050000C94470011241FBECFE5D8E0DEBFCDBF12
:1000600010E0A0E6B0E0E2E2FCE002C005900D92F4
:10007000A838B107D9F720E0A8E8B0E001C01D9288
:10008000AB39B207E1F70E9497050C940F060C9468
:100090000000413091F018F0423029F10895E82F26
:1000A000F0E0EE0FFF1FE059FF4F0190F081E02DCF
:1000B0008081609568236083089590E0880F991F80
:1000C000FC01E059FF4F0190F081E02D3081262F97
:1000D00020952323208388599F4FDC01ED91FC91CB
:1000E0008081682BE8CFE82FF0E0EE0FFF1FE0598A
:1000F000FF4F0190F081E02DF3CF442319F0413000
:1001000079F00895E82FF0E0EE0FFF1FE859FF4F58
:100110000190F081E02D80816095682360830895CF
:10012000E82FF0E0EE0FFF1FE859FF4F0190F0813C
:10013000E02D8081682BF2CFE82FF0E0EE0FFF1F5B
:10014000E859FF4F0190F081E02D8081682760839E
:100150000895E82FF0E0EE0FFF1FE05AFF4F0190E7
:10016000F081E02D8081682319F4FA01108208954E
:1001700081E0FA0180830895813041F018F08230E7
:1001800041F008958BB780648BBF08958BB780686A
:10019000FBCF8BB78062F8CF813041F018F082300E
:1001A00041F008958BB78F7B8BBF08958BB78F7706
:1001B000FBCF8BB78F7DF8CF813079F018F082308C
:1001C000D9F0089585B78C7F85BF85B7682B65BF4B
:1001D00050938D0040938C00089585B7837F85BF31
:1001E00085B794E0699FB0011124682B65BF5093D7
:1001F0008B0040938A000895633041F484B7806493
:1002000084BF509389004093880008956230C9F7F5
:1002100084B78F7BF5CF1F920F920FB60F921124E8
:100220002F933F934F935F936F937F938F939F93FE
:10023000AF93BF93EF93FF93E0918C00F0918D000B
:10024000309709F00995FF91EF91BF91AF919F9180
:100250008F917F916F915F914F913F912F910F906F
:100260000FBE0F901F9018951F920F920FB60F920E
:1002700011242F933F934F935F936F937F938F93AB
:100280009F93AF93BF93EF93FF93E0918A00F09118
:100290008B00309709F00995FF91EF91BF91AF91D5
:1002A0009F918F917F916F915F914F913F912F918E
:1002B0000F900FBE0F901F9018951F920F920FB6C0
:1002C0000F9211242F933F934F935F936F937F93DC
:1002D0008F939F93AF93BF93EF93FF93E091880029
:1002E000F0918900309709F00995FF91EF91BF9146
:1002F000AF919F918F917F916F915F914F913F91BE
:100300002F910F900FBE0F901F90189520E4829FA1
:10031000C001112420E2629FB0011124862B87B90D
:10032000406846B9089597B1907E97B997B1892BE7
:1003300087B9369A349BFECF349A3D9B06C085B16F
:1003400090E0FB0191838083089584B195B1F9CF4A
:1003500012BE83B790919A00892B83BF08951DBC6C
:100360001CBC8EB59FB520919900822B9FBD8EBD80
:100370000895882339F0813021F47FBD6EBD40930C
:10038000990008956836710529F4433318F04253F3
:1003900060E670E063BF40939A000895CF92DF92C9
:1003A000EF92FF926A017B01811112C08AEF8CBF2C
:1003B0000E94A80181E0C81AD108E108F1088FEF76
:1003C000C816D806E806F80641F483B7887F83BFCD
:1003D000FF90EF90DF90CF90089508B601FEFDCF1B
:1003E00088B7826088BFE6CF0F93882329F08130D9
:1003F000C9F40F910C94AF018AEF8CBF4093940025
:1004000050939500609396007093970030939300FB
:10041000209392000093980089B7826089BF0F9162
:100420000C94A8010F910895811101C06CBF08952B
:10043000882319F0813019F008950C94A8010C94C8
:10044000AF01882319F0813029F0089583B7887FA0
:1004500083BF08958EB59FB5887F9FBD8EBD0895DB
:10046000AF92BF92CF92DF92EF92FF920F931F93C2
:10047000CF93DF9300D000D000D0CDB7DEB75C01C2
:100480008B01CE0101967C0186E0F70111928A95DD
:10049000E9F78EB59FB580649FBD8EBD0E94AF0108
:1004A000F7019E01295F3F4F08B605FEFDCF86B5D7
:1004B00097B58193919388B7806288BF8EB59FB5B9
:1004C00040E484279FBD8EBDE217F30769F78EB520
:1004D0009FB5887F9FBD8EBD89819A81CD80DE804A
:1004E000C81AD90AF12CE12C2B813C81281B390B2D
:1004F000A4E6B0E00E940006A70196010E94DE0576
:10050000F501208360E970ED83E090E0A70196019A
:100510000E94DE05F80120833183428353832696AF
:100520000FB6F894DEBF0FBECDBFDF91CF911F9104
:100530000F91FF90EF90DF90CF90BF90AF90089514
:100540001F920F920FB60F9211242F933F934F9348
:100550005F936F937F938F939F93AF93BF93EF932B
:10056000FF9380918E0090918F00A0919000B091A8
:1005700091000196A11DB11D80938E0090938F0074
:10058000A0939000B09391004091940050919500F9
:10059000609196007091970084179507A607B7079A
:1005A000B1F4E0919200F0919300309781F00995B9
:1005B00010928E0010928F00109290001092910075
:1005C00080919800811103C083B7887F83BFFF911A
:1005D000EF91BF91AF919F918F917F916F915F91BB
:1005E0004F913F912F910F900FBE0F901F90189534
:1005F00028E12AB926E820BD89B99F7790BD0895E2
:100600005D9B04C08CB95E9BFECF5E9A08955F9B94
:1006100003C02CB1FC0120830895813049F018F00B
:10062000823049F0089542E064E082E00C94490091
:1006300042E060E8FACF42E068E083E0F7CF813043
:1006400049F018F0823049F0089541E064E082E01A
:100650000C947D0041E060E8FACF41E068E083E07F
:10066000F7CF813049F018F0823049F0089540E02A
:1006700064E082E00C947D0040E060E8FACF40E066
:1006800068E083E0F7CF813041F018F0823039F034
:10069000089564E082E00C949C0060E8FBCF68E081
:1006A00083E0F9CF813049F018F0823051F008959D
:1006B00040E061E081E00C94490040E060E483E0C8
:1006C000FACF40E064E0FBCFAB01813041F018F09D
:1006D000823041F0089561E081E00C94A90060E46B
:1006E00083E0FBCF64E0FCCFCF93C82F42E060E112
:1006F00080E00E94490042E060E280E00E94490000
:1007000042E060E480E00E94490042E060E880E06E
:100710000E944900CC2321F0C13041F0CF910895CF
:1007200042E064E081E0CF910C94490042E062E055
:10073000F9CF882319F0813031F0089541E064E069
:1007400081E00C947D0041E062E0FACF882319F04B
:10075000813031F0089540E064E081E00C947D0048
:1007600040E062E0FACFCF938A30F0F4C82F482FF0
:10077000417060E180E00E947D00C1FB442740F9A8
:1007800060E280E00E947D00C2FB442740F960E403
:1007900080E00E947D004C2F46954695469560E886
:1007A00080E0CF910C947D00CF910895CF93C82F16
:1007B00040E062E081E00E947D0040E064E081E092
:1007C0000E947D00C4FB442740F960E180E00E9464
:1007D0007D00C5FB442740F960E280E00E947D0077
:1007E000C6FB442740F960E480E00E947D004C2F66
:1007F000441F4427441F60E880E00E947D0040E0E1
:1008000068E081E00E947D0087EC90E00197F1F7BD
:1008100000C0000041E068E081E00E947D004C2FB4
:10082000417060E180E00E947D00C1FB442740F9F7
:1008300060E280E00E947D00C2FB442740F960E452
:1008400080E00E947D00C3FB442740F960E880E01F
:100850000E947D0040E068E081E00E947D0087EC1E
:1008600090E00197F1F700C0000041E068E081E00E
:10087000CF910C947D00CF93C82F41E062E081E0DE
:100880000E947D0040E064E081E00E947D00C4FBA6
:10089000442740F960E180E00E947D00C5FB4427C9
:1008A00040F960E280E00E947D00C6FB442740F9E9
:1008B00060E480E00E947D004C2F441F4427441FC9
:1008C00060E880E00E947D0040E068E081E00E94F6
:1008D0007D0087EC90E00197F1F700C0000041E057
:1008E00068E081E00E947D004C2F417060E180E073
:1008F0000E947D00C1FB442740F960E280E00E9435
:100900007D00C2FB442740F960E480E00E947D0046
:10091000C3FB442740F960E880E00E947D0040E08E
:1009200068E081E00E947D0087EC90E00197F1F79C
:1009300000C0000041E068E081E0CF910C947D00B0
:1009400042E06EE081E00E94490042E060EF80E01A
:100950000E94490041E068E081E00E947D002FEFA5
:1009600080E792E0215080409040E1F700C0000015
:1009700040E060E180E00E947D0041E060E280E0D4
:100980000E947D0040E060E480E00E947D0040E045
:1009900060E880E00E947D0040E068E081E00E9425
:1009A0007D0087EC90E00197F1F700C0000041E086
:1009B00068E081E00E947D008CE20E94D6038FE90E
:1009C0009FE00197F1F700C000008FE00E94D6037E
:1009D0008FE99FE00197F1F700C0000081E00E94DD
:1009E000D6038FE39FE10197F1F700C0000086E096
:1009F0000E94D6038FE99FE00197F1F700C0000045
:100A000008950C943B04CF93DF93EC0189918111FD
:100A100003C0DF91CF9108950E943B04F7CF606837
:100A2000862B0C94D60341E06FE082E00E944900DF
:100A300042E060EF82E00E94490041E060EF82E026
:100A40000C947D006F927F928F929F92AF92BF9293
:100A5000CF92DF92EF92FF920F931F93CF93DF938A
:100A60001F92CDB7DEB76C01FC011082F12CE12C96
:100A700090E1692E712C88248394912C53010E2CC3
:100A800001C0AA0C0A94EAF740E06A2D82E00E94B5
:100A90007D0010E000E0AE014F5F5F4FB401002E1B
:100AA00001C0660F0A94EAF782E00E94A9008981DA
:100AB000811136C0FFEF24E38CE0F15020408040EC
:100AC000E1F700C00000F801EE0FFF1FEE0FFF1F5F
:100AD000E858FF4FEE0DFF1D8081F601808341E055
:100AE0006A2D82E00E947D00F6018081811108C09C
:100AF000FFEFEF1AFF0A24E0E216F10409F0BECF7F
:100B00000F90DF91CF911F910F91FF90EF90DF90A9
:100B1000CF90BF90AF909F908F907F906F900895EF
:100B20000F5F1F4F0430110509F0B5CFD8CFCF9319
:100B3000DF931F92CDB7DEB787E690E00E94F80200
:100B400040E061E083E00E94490042E062E083E02F
:100B50000E94490042E064E082E00E944900CE0128
:100B600001960E9407038981813699F441E064E08F
:100B700082E00E947D008DE00E9400038AE00E94D6
:100B800000038FE40E9400038EE40E940003198298
:100B9000E6CF8236E1F740E064E082E00E947D002B
:100BA0008DE00E9400038AE00E9400038FE40E940F
:100BB000000386E40E94000386E4E7CFA1E21A2E38
:100BC000AA1BBB1BFD010DC0AA1FBB1FEE1FFF1FF1
:100BD000A217B307E407F50720F0A21BB30BE40B41
:100BE000F50B661F771F881F991F1A9469F7609588
:100BF0007095809590959B01AC01BD01CF01089542
:100C0000A29FB001B39FC001A39F700D811D11244D
:100C1000911DB29F700D811D1124911D0895F894AE
:020C2000FFCF04
:100C220039003600330030003B0038003500320016
:100C32003A00370034003100313233413435364224
:080C4200373839432A302344FE
:00000001FF
