:100000000C942A000C943F000C943F000C943F0089
:100010000C943F000C943F000C943F000C943F0064
:100020000C943F000C943F000C943F000C943F0054
:100030000C943F000C943F000C943F000C943F0044
:100040000C943F000C943F000C943F000C943F0034
:100050000C943F0011241FBECFE5D8E0DEBFCDBF1A
:1000600010E0A0E6B0E0E6E8F5E002C005900D92F1
:10007000AE37B107D9F70E94BA020C94C1020C94B2
:100080000000413091F018F0423029F10895E82F36
:10009000F0E0EE0FFF1FE059FF4F0190F081E02DDF
:1000A0008081609568236083089590E0880F991F90
:1000B000FC01E059FF4F0190F081E02D3081262FA7
:1000C00020952323208388599F4FDC01ED91FC91DB
:1000D0008081682BE8CFE82FF0E0EE0FFF1FE0599A
:1000E000FF4F0190F081E02DF3CF442319F0413010
:1000F00079F00895E82FF0E0EE0FFF1FE859FF4F69
:100100000190F081E02D80816095682360830895DF
:10011000E82FF0E0EE0FFF1FE859FF4F0190F0814C
:10012000E02D8081682BF2CFE82FF0E0EE0FFF1F6B
:10013000E859FF4F0190F081E02D808168276083AE
:100140000895E82FF0E0EE0FFF1FE05AFF4F0190F7
:10015000F081E02D8081682319F4FA01108208955E
:1001600081E0FA0180830895813049F018F08230EF
:1001700049F0089542E064E082E00C94410042E0DE
:1001800060E8FACF42E068E083E0F7CF813049F0E1
:1001900018F0823049F0089541E064E082E00C9468
:1001A000750041E060E8FACF41E068E083E0F7CF16
:1001B000813049F018F0823049F0089540E064E061
:1001C00082E00C94750040E060E8FACF40E068E01F
:1001D00083E0F7CF813041F018F0823039F0089594
:1001E00064E082E00C94940060E8FBCF68E083E078
:1001F000F9CF813049F018F0823051F0089540E095
:1002000061E081E00C94410040E060E483E0FACFDB
:1002100040E064E0FBCFAB01813041F018F0823068
:1002200041F0089561E081E00C94A10060E483E076
:10023000FBCF64E0FCCFCF93C82F42E060E180E0C9
:100240000E94410042E060E280E00E94410042E002
:1002500060E480E00E94410042E060E880E00E94AB
:100260004100CC2321F0C13041F0CF91089542E00C
:1002700064E081E0CF910C94410042E062E0F9CF6C
:10028000882319F0813031F0089541E064E081E085
:100290000C94750041E062E0FACF882319F08130B8
:1002A00031F0089540E064E081E00C94750040E096
:1002B00062E0FACFCF938A30F0F4C82F482F417014
:1002C00060E180E00E947500C1FB442740F960E2D4
:1002D00080E00E947500C2FB442740F960E480E0A2
:1002E0000E9475004C2F46954695469560E880E043
:1002F000CF910C947500CF910895CF93C82F40E013
:1003000062E081E00E94750040E064E081E00E94CC
:100310007500C4FB442740F960E180E00E9475004D
:10032000C5FB442740F960E280E00E947500C6FBEF
:10033000442740F960E480E00E9475004C2F441F80
:100340004427441F60E880E00E94750040E068E0B8
:1003500081E00E94750087EC90E00197F1F700C002
:10036000000041E068E081E00E9475004C2F417080
:1003700060E180E00E947500C1FB442740F960E223
:1003800080E00E947500C2FB442740F960E480E0F1
:100390000E947500C3FB442740F960E880E00E949A
:1003A000750040E068E081E00E94750087EC90E015
:1003B0000197F1F700C0000041E068E081E0CF91D3
:1003C0000C947500CF93C82F41E062E081E00E9459
:1003D000750040E064E081E00E947500C4FB4427A2
:1003E00040F960E180E00E947500C5FB442740F9B8
:1003F00060E280E00E947500C6FB442740F960E49B
:1004000080E00E9475004C2F441F4427441F60E881
:1004100080E00E94750040E068E081E00E94750085
:1004200087EC90E00197F1F700C0000041E068E040
:1004300081E00E9475004C2F417060E180E00E94D5
:100440007500C1FB442740F960E280E00E9475001E
:10045000C2FB442740F960E480E00E947500C3FBC2
:10046000442740F960E880E00E94750040E068E0C1
:1004700081E00E94750087EC90E00197F1F700C0E1
:10048000000041E068E081E0CF910C94750042E00B
:100490006EE081E00E94410042E060EF80E00E9457
:1004A000410041E068E081E00E9475002FEF80E7A5
:1004B00092E0215080409040E1F700C0000040E011
:1004C00060E180E00E94750041E060E280E00E940F
:1004D000750040E060E480E00E94750040E060E864
:1004E00080E00E94750040E068E081E00E947500B5
:1004F00087EC90E00197F1F700C0000041E068E070
:1005000081E00E9475008CE20E947D018FE99FE0EE
:100510000197F1F700C000008FE00E947D018FE994
:100520009FE00197F1F700C0000081E00E947D018B
:100530008FE39FE10197F1F700C0000086E00E9481
:100540007D018FE99FE00197F1F700C00000089559
:100550000C94E201CF93DF93EC018991811103C0E8
:10056000DF91CF9108950E94E201F7CF6068862B5A
:100570000C947D010E94470288E790E00E94AA0245
:06058000FFCFF894FFCF4D
:1005860039003600330030003B00380035003200B9
:0E0596003A0037003400310041686D656400A2
:00000001FF
