:100000000C942A000C940B010C9434010C945D01A7
:100010000C9447000C9447000C9447000C94470044
:100020000C9447000C9447000C94E4010C94470096
:100030000C9447000C9447000C9447000C94470024
:100040000C9447000C9447000C9447000C94470014
:100050000C94470011241FBECFE5D8E0DEBFCDBF12
:1000600010E0A0E6B0E0ECEBF9E002C005900D92E4
:10007000A838B107D9F720E0A8E8B0E001C01D9288
:10008000AA39B207E1F70E94C6040C94DC040C9470
:100090000000413091F018F0423029F10895E82F26
:1000A000F0E0EE0FFF1FE059FF4F0190F081E02DCF
:1000B0008081609568236083089590E0880F991F80
:1000C000FC01E059FF4F0190F081E02D3081262F97
:1000D00020952323208388599F4FDC01ED91FC91CB
:1000E0008081682BE8CFE82FF0E0EE0FFF1FE0598A
:1000F000FF4F0190F081E02DF3CF442319F0413000
:1001000079F00895E82FF0E0EE0FFF1FE859FF4F58
:100110000190F081E02D80816095682360830895CF
:10012000E82FF0E0EE0FFF1FE859FF4F0190F0813C
:10013000E02D8081682BF2CFE82FF0E0EE0FFF1F5B
:10014000E859FF4F0190F081E02D8081682760839E
:100150000895E82FF0E0EE0FFF1FE05AFF4F0190E7
:10016000F081E02D8081682319F4FA01108208954E
:1001700081E0FA0180830895813041F018F08230E7
:1001800041F008958BB780648BBF08958BB780686A
:10019000FBCF8BB78062F8CF813041F018F082300E
:1001A00041F008958BB78F7B8BBF08958BB78F7706
:1001B000FBCF8BB78F7DF8CF813079F018F082308C
:1001C000D9F0089585B78C7F85BF85B7682B65BF4B
:1001D00050938D0040938C00089585B7837F85BF31
:1001E00085B794E0699FB0011124682B65BF5093D7
:1001F0008B0040938A000895633041F484B7806493
:1002000084BF509389004093880008956230C9F7F5
:1002100084B78F7BF5CF1F920F920FB60F921124E8
:100220002F933F934F935F936F937F938F939F93FE
:10023000AF93BF93EF93FF93E0918C00F0918D000B
:10024000309709F00995FF91EF91BF91AF919F9180
:100250008F917F916F915F914F913F912F910F906F
:100260000FBE0F901F9018951F920F920FB60F920E
:1002700011242F933F934F935F936F937F938F93AB
:100280009F93AF93BF93EF93FF93E0918A00F09118
:100290008B00309709F00995FF91EF91BF91AF91D5
:1002A0009F918F917F916F915F914F913F912F918E
:1002B0000F900FBE0F901F9018951F920F920FB6C0
:1002C0000F9211242F933F934F935F936F937F93DC
:1002D0008F939F93AF93BF93EF93FF93E091880029
:1002E000F0918900309709F00995FF91EF91BF9146
:1002F000AF919F918F917F916F915F914F913F91BE
:100300002F910F900FBE0F901F90189520E4829FA1
:10031000C001112420E2629FB0011124862B87B90D
:10032000406846B9089597B1907E97B997B1892BE7
:1003300087B9369A349BFECF349A3D9B06C085B16F
:1003400090E0FB0191838083089584B195B1F9CF4A
:10035000811103C063BF409399000895811110C0BB
:100360008AEF8CBF12BE83B790919900892B83BF0F
:10037000415051096109710920F483B7887F83BF17
:10038000089508B601FEFDCF88B7826088BFF0CF20
:100390000F93811117C04093940050939500609380
:1003A00096007093970030939300209392000093EF
:1003B000980089B7826089BF12BE83B79091990077
:1003C000892B83BF0F9108951F920F920FB60F9242
:1003D00011242F933F934F935F936F937F938F934A
:1003E0009F93AF93BF93EF93FF9380918E00909173
:1003F0008F00A0919000B09191000196A11DB11DB8
:1004000080938E0090938F00A0939000B093910002
:1004100040919400509195006091960070919700E2
:1004200084179507A607B707B1F4E0919200F09101
:100430009300309781F0099510928E0010928F00F2
:10044000109290001092910080919800811103C049
:1004500083B7887F83BFFF91EF91BF91AF919F9149
:100460008F917F916F915F914F913F912F910F905D
:100470000FBE0F901F901895813049F018F0823010
:1004800049F0089542E064E082E00C94490042E0C3
:1004900060E8FACF42E068E083E0F7CF813049F0CE
:1004A00018F0823049F0089541E064E082E00C9455
:1004B0007D0041E060E8FACF41E068E083E0F7CFFB
:1004C000813049F018F0823049F0089540E064E04E
:1004D00082E00C947D0040E060E8FACF40E068E004
:1004E00083E0F7CF813041F018F0823039F0089581
:1004F00064E082E00C949C0060E8FBCF68E083E05D
:10050000F9CF813049F018F0823051F0089540E081
:1005100061E081E00C94490040E060E483E0FACFC0
:1005200040E064E0FBCFAB01813041F018F0823055
:1005300041F0089561E081E00C94A90060E483E05B
:10054000FBCF64E0FCCFCF93C82F42E060E180E0B6
:100550000E94490042E060E280E00E94490042E0DF
:1005600060E480E00E94490042E060E880E00E9490
:100570004900CC2321F0C13041F0CF91089542E0F1
:1005800064E081E0CF910C94490042E062E0F9CF51
:10059000882319F0813031F0089541E064E081E072
:1005A0000C947D0041E062E0FACF882319F081309D
:1005B00031F0089540E064E081E00C947D0040E07B
:1005C00062E0FACFCF938A30F0F4C82F482F417001
:1005D00060E180E00E947D00C1FB442740F960E2B9
:1005E00080E00E947D00C2FB442740F960E480E087
:1005F0000E947D004C2F46954695469560E880E028
:10060000CF910C947D00CF910895CF93C82F40E0F7
:1006100062E081E00E947D0040E064E081E00E94B1
:100620007D00C4FB442740F960E180E00E947D002A
:10063000C5FB442740F960E280E00E947D00C6FBD4
:10064000442740F960E480E00E947D004C2F441F65
:100650004427441F60E880E00E947D0040E068E09D
:1006600081E00E947D0087EC90E00197F1F700C0E7
:10067000000041E068E081E00E947D004C2F417065
:1006800060E180E00E947D00C1FB442740F960E208
:1006900080E00E947D00C2FB442740F960E480E0D6
:1006A0000E947D00C3FB442740F960E880E00E947F
:1006B0007D0040E068E081E00E947D0087EC90E0F2
:1006C0000197F1F700C0000041E068E081E0CF91C0
:1006D0000C947D00CF93C82F41E062E081E00E943E
:1006E0007D0040E064E081E00E947D00C4FB44277F
:1006F00040F960E180E00E947D00C5FB442740F99D
:1007000060E280E00E947D00C6FB442740F960E47F
:1007100080E00E947D004C2F441F4427441F60E866
:1007200080E00E947D0040E068E081E00E947D0062
:1007300087EC90E00197F1F700C0000041E068E02D
:1007400081E00E947D004C2F417060E180E00E94BA
:100750007D00C1FB442740F960E280E00E947D00FB
:10076000C2FB442740F960E480E00E947D00C3FBA7
:10077000442740F960E880E00E947D0040E068E0A6
:1007800081E00E947D0087EC90E00197F1F700C0C6
:10079000000041E068E081E0CF910C947D0042E0F0
:1007A0006EE081E00E94490042E060EF80E00E943C
:1007B000490041E068E081E00E947D002FEF80E782
:1007C00092E0215080409040E1F700C0000040E0FE
:1007D00060E180E00E947D0041E060E280E00E94F4
:1007E0007D0040E060E480E00E947D0040E060E841
:1007F00080E00E947D0040E068E081E00E947D0092
:1008000087EC90E00197F1F700C0000041E068E05C
:1008100081E00E947D008CE20E9405038FE99FE049
:100820000197F1F700C000008FE00E9405038FE9F7
:100830009FE00197F1F700C0000081E00E940503EE
:100840008FE39FE10197F1F700C0000086E00E946E
:1008500005038FE99FE00197F1F700C000000895BC
:100860000C946A03CF93DF93EC018991811103C04B
:10087000DF91CF9108950E946A03F7CF6068862BBD
:100880000C94050341E06FE082E00E94490042E0E1
:1008900060EF82E00E94490041E060EF82E00C944A
:1008A0007D006F927F928F929F92AF92BF92CF9274
:1008B000DF92EF92FF920F931F93CF93DF931F92DC
:1008C000CDB7DEB76C01FC011082F12CE12C90E178
:1008D000692E712C88248394912C53010E2C01C015
:1008E000AA0C0A94EAF740E06A2D82E00E947D009B
:1008F00010E000E0AE014F5F5F4FB401002E01C079
:10090000660F0A94EAF782E00E94A90089818111AA
:1009100036C0FFEF24E38CE0F15020408040E1F747
:1009200000C00000F801EE0FFF1FEE0FFF1FE85898
:10093000FF4FEE0DFF1D8081F601808341E06A2D9F
:1009400082E00E947D00F6018081811108C0FFEFE6
:10095000EF1AFF0A24E0E216F10409F0BECF0F906F
:10096000DF91CF911F910F91FF90EF90DF90CF908B
:10097000BF90AF909F908F907F906F9008950F5F82
:100980001F4F0430110509F0B5CFD8CF42E060E821
:1009900082E00E94490043E068E080E00E94A801F4
:1009A00060E882E00E949C0048EE53E060E070E066
:0C09B00080E00E94AE01F4CFF894FFCF6D
:1009BC0039003600330030003B003800350032007F
:1009CC003A0037003400310031323341343536428D
:0809DC00373839432A30234467
:00000001FF
