:100000000C942A000C943F000C943F000C943F0089
:100010000C943F000C943F000C943F000C943F0064
:100020000C943F000C943F000C943F000C943F0054
:100030000C943F000C943F000C943F000C943F0044
:100040000C943F000C943F000C943F000C943F0034
:100050000C943F0011241FBECFE5D8E0DEBFCDBF1A
:1000600010E0A0E6B0E0ECE7F2E002C005900D92EF
:10007000A837B107D9F70E941B010C943C010C94DE
:100080000000413091F018F0423029F10895E82F36
:10009000F0E0EE0FFF1FE059FF4F0190F081E02DDF
:1000A0008081609568236083089590E0880F991F90
:1000B000FC01E059FF4F0190F081E02D3081262FA7
:1000C00020952323208388599F4FDC01ED91FC91DB
:1000D0008081682BE8CFE82FF0E0EE0FFF1FE0599A
:1000E000FF4F0190F081E02DF3CF442319F0413010
:1000F00079F00895E82FF0E0EE0FFF1FE859FF4F69
:100100000190F081E02D80816095682360830895DF
:10011000E82FF0E0EE0FFF1FE859FF4F0190F0814C
:10012000E02D8081682BF2CFE82FF0E0EE0FFF1F6B
:10013000E859FF4F0190F081E02D808168276083AE
:100140000895E82FF0E0EE0FFF1FE05AFF4F0190F7
:10015000F081E02D8081682319F4FA01108208955E
:1001600081E0FA0180830895813049F018F08230EF
:1001700049F0089542E064E082E00C94410042E0DE
:1001800060E8FACF42E068E083E0F7CF813049F0E1
:1001900018F0823049F0089541E064E082E00C9468
:1001A000750041E060E8FACF41E068E083E0F7CF16
:1001B000813049F018F0823049F0089540E064E061
:1001C00082E00C94750040E060E8FACF40E068E01F
:1001D00083E0F7CF813041F018F0823039F0089594
:1001E00064E082E00C94940060E8FBCF68E083E078
:1001F000F9CF813049F018F0823051F0089540E095
:1002000061E081E00C94410040E060E483E0FACFDB
:1002100040E064E0FBCFAB01813041F018F0823068
:1002200041F0089561E081E00C94A10060E483E076
:10023000FBCF64E0FCCFCF93DF931F92CDB7DEB747
:1002400081E00E94B40080E00E94F900BE016F5F6F
:100250007F4F80E00E940B0189818130B9F72FEF39
:1002600083EC99E0215080409040E1F700C000000D
:0C02700081E00E94EA00EACFF894FFCF82
:10027C0039003600330030003B00380035003200C6
:08028C003A0037003400310094
:00000001FF
