:100000000C942A000C9437010C9460010C94890123
:100010000C9447000C9447000C9447000C94791FF3
:100020000C9447000C9447000C94CC020C944700AD
:100030000C9447000C9447000C9447000C94470024
:100040000C9447000C9447000C9447000C94470014
:100050000C94470011241FBECFE5D8E0DEBFCDBF12
:1000600010E0A0E6B0E0E2EDFFE302C005900D92E3
:10007000A63AB107D9F727E0A6EAB0E001C01D9281
:10008000AE31B207E1F70E947C1F0C94E71F0C947D
:10009000000080E00E94A70381E00E94A70382E0A5
:1000A0000E94A70390E080E00E946514F2CF80E0F8
:1000B0000E94DD0368EE73E080E090E00E947A1712
:1000C000F6CF81E00E94DD0364EF71E080E090E014
:1000D0000E947A17F6CF82E00E94DD036AEF70E09B
:1000E00080E090E00E947A17F6CF413091F018F04E
:1000F000423029F10895E82FF0E0EE0FFF1FEF588E
:10010000FF4F0190F081E02D80816095682360832E
:10011000089590E0880F991FFC01EF58FF4F019060
:10012000F081E02D3081262F2095232320838759CD
:100130009F4FDC01ED91FC918081682BE8CFE82F87
:10014000F0E0EE0FFF1FEF58FF4F0190F081E02D20
:10015000F3CF442319F0413079F00895E82FF0E00F
:10016000EE0FFF1FE759FF4F0190F081E02D8081D6
:100170006095682360830895E82FF0E0EE0FFF1F7D
:10018000E759FF4F0190F081E02D8081682BF2CF7D
:10019000E82FF0E0EE0FFF1FE759FF4F0190F081CD
:1001A000E02D8081682760830895E82FF0E0EE0F4E
:1001B000FF1FEF59FF4F0190F081E02D80816823F0
:1001C00019F4FA011082089581E0FA0180830895FC
:1001D000813041F018F0823041F008958BB780648F
:1001E0008BBF08958BB78068FBCF8BB78062F8CF49
:1001F000813041F018F0823041F008958BB78F7B49
:100200008BBF08958BB78F77FBCF8BB78F7DF8CFE0
:10021000813079F018F08230D9F0089585B78C7F5D
:1002200085BF85B7682B65BF5093AB004093AA008C
:10023000089585B7837F85BF85B794E0699FB00136
:100240001124682B65BF5093A9004093A80008951E
:10025000633041F484B7806484BF5093A700409317
:10026000A60008956230C9F784B78F7BF5CF1F923F
:100270000F920FB60F9211242F933F934F935F93DA
:100280006F937F938F939F93AF93BF93EF93FF935E
:10029000E091AA00F091AB00309709F00995FF9129
:1002A000EF91BF91AF919F918F917F916F915F91EE
:1002B0004F913F912F910F900FBE0F901F90189567
:1002C0001F920F920FB60F9211242F933F934F93CB
:1002D0005F936F937F938F939F93AF93BF93EF93AE
:1002E000FF93E091A800F091A900309709F00995DB
:1002F000FF91EF91BF91AF919F918F917F916F91FE
:100300005F914F913F912F910F900FBE0F901F90D3
:1003100018951F920F920FB60F9211242F933F93AF
:100320004F935F936F937F938F939F93AF93BF93FD
:10033000EF93FF93E091A600F091A700309709F0AA
:100340000995FF91EF91BF91AF919F918F917F910F
:100350006F915F914F913F912F910F900FBE0F9032
:100360001F90189520E4829FC001112420E2629F13
:10037000B0011124862B87B9406846B9089597B11A
:10038000907E97B997B1892B87B9369A349BFECF67
:10039000349A3D9B06C085B190E0FB019183808338
:1003A000089584B195B1F9CF12BE83B79091B8008A
:1003B000892B83BF08951DBC1CBC8EB59FB52091B1
:1003C000B700822B9FBD8EBD0895882339F0813000
:1003D00021F47FBD6EBD4093B70008956836710566
:1003E00029F4433318F0425360E670E063BF409352
:1003F000B8000895CF92DF92EF92FF926A017B01DD
:10040000811112C08AEF8CBF0E94D40181E0C81A0A
:10041000D108E108F1088FEFC816D806E806F806FB
:1004200041F483B7887F83BFFF90EF90DF90CF9038
:10043000089508B601FEFDCF88B7826088BFE6CF79
:100440000F93882329F08130C9F40F910C94DB01BC
:100450008AEF8CBF4093B2005093B3006093B40016
:100460007093B5003093B1002093B0000093B600B4
:1004700089B7826089BF0F910C94D4010F910895C0
:10048000811101C06CBF0895882319F0813019F0E3
:1004900008950C94D4010C94DB01882319F0813069
:1004A00029F0089583B7887F83BF08958EB59FB5DF
:1004B000887F9FBD8EBD0895AF92BF92CF92DF928D
:1004C000EF92FF920F931F93CF93DF9300D000D052
:1004D00000D0CDB7DEB75C018B01CE0101967C0167
:1004E00086E0F70111928A95E9F78EB59FB5806491
:1004F0009FBD8EBD0E94DB01F7019E01295F3F4F2A
:1005000008B605FEFDCF86B597B58193919388B760
:10051000806288BF8EB59FB540E484279FBD8EBDA5
:10052000E217F30769F78EB59FB5887F9FBD8EBD33
:1005300089819A81CD80DE80C81AD90AF12CE12CFC
:100540002B813C81281B390BA4E6B0E00E94CF1F11
:10055000A70196010E94AD1FF501208360E970EDAF
:1005600083E090E0A70196010E94AD1FF80120836F
:1005700031834283538326960FB6F894DEBF0FBEB5
:10058000CDBFDF91CF911F910F91FF90EF90DF9042
:10059000CF90BF90AF9008951F920F920FB60F9219
:1005A00011242F933F934F935F936F937F938F9378
:1005B0009F93AF93BF93EF93FF938091AC00909183
:1005C000AD00A091AE00B091AF000196A11DB11D8C
:1005D0008093AC009093AD00A093AE00B093AF00B9
:1005E0004091B2005091B3006091B4007091B50099
:1005F00084179507A607B707B1F4E091B000F09112
:10060000B100309781F009951092AC001092AD00C6
:100610001092AE001092AF008091B600811103C01D
:1006200083B7887F83BFFF91EF91BF91AF919F9177
:100630008F917F916F915F914F913F912F910F908B
:100640000FBE0F901F90189528E12AB926E820BD0B
:1006500089B99F7790BD08955D9B04C08CB95E9B5E
:10066000FECF5E9A08955F9B03C02CB1FC012083EE
:100670000895615008F408955D9BFBCFFC01208133
:100680002CB95E9BFECF5E9A0196F3CF20FF709A45
:1006900034E0439FA0011124406490E2699FB001BF
:1006A0001124462B30E1839FC0011124482B26954D
:1006B000242B2DB908958FB9779BFECF8FB1FB0105
:1006C000808308959091B900911104C08FB991E091
:1006D0009093B900779B04C09FB1FB0190838FB9C1
:1006E000089588E480B911B8089594EA96BF91B14D
:1006F000987F983021F091B1987F9031C1F7880FA1
:10070000682B63B984E886BF06B607FEFDCF08955F
:1007100084E986BF06B604FCFDCF089583B984E85A
:1007200086BF06B607FEFDCF089524EC26BF06B6A9
:1007300007FEFDCF23B1FC012083089524E826BFE6
:1007400006B607FEFDCF23B1FC012083089581305A
:1007500049F018F0823049F0089542E064E082E008
:100760000C94750042E060E8FACF42E068E083E074
:10077000F7CF813049F018F0823049F0089541E018
:1007800064E082E00C94A90041E060E8FACF41E027
:1007900068E083E0F7CF813049F018F0823049F00B
:1007A000089540E064E082E00C94A90040E060E835
:1007B000FACF40E068E083E0F7CF813041F018F0F5
:1007C000823039F0089564E082E00C94C80060E85B
:1007D000FBCF68E083E0F9CF813049F018F0823038
:1007E00051F0089540E061E081E00C94750040E034
:1007F00060E483E0FACF40E064E0FBCFAB018130FE
:1008000041F018F0823041F0089561E081E00C94ED
:10081000D50060E483E0FBCF64E0FCCFCF93C82F2A
:1008200042E060E180E00E94750042E060E280E02A
:100830000E94750042E060E480E00E94750042E0A2
:1008400060E880E00E947500CC2321F0C13041F0C7
:10085000CF91089542E064E081E0CF910C9475005F
:1008600042E062E0F9CF882319F0813031F0089539
:1008700041E064E081E00C94A90041E062E0FACF3D
:10088000882319F0813031F0089540E064E081E080
:100890000C94A90040E062E0FACFCF938A30F0F4E4
:1008A000C82F482F417060E180E00E94A900C1FB81
:1008B000442740F960E280E00E94A900C2FB44277F
:1008C00040F960E480E00E94A9004C2F46954695CF
:1008D000469560E880E0CF910C94A900CF910895EF
:1008E000CF93C82F40E062E081E00E94A90040E081
:1008F00064E081E00E94A900C4FB442740F960E164
:1009000080E00E94A900C5FB442740F960E280E036
:100910000E94A900C6FB442740F960E480E00E94E1
:10092000A9004C2F441F4427441F60E880E00E9428
:10093000A90040E068E081E00E94A90087EC90E017
:100940000197F1F700C0000041E068E081E00E94FB
:10095000A9004C2F417060E180E00E94A900C1FB1A
:10096000442740F960E280E00E94A900C2FB4427CE
:1009700040F960E480E00E94A900C3FB442740F9ED
:1009800060E880E00E94A90040E068E081E00E9409
:10099000A90087EC90E00197F1F700C0000041E06A
:1009A00068E081E0CF910C94A900CF93C82F41E07B
:1009B00062E081E00E94A90040E064E081E00E94E2
:1009C000A900C4FB442740F960E180E00E94A9002F
:1009D000C5FB442740F960E280E00E94A900C6FB05
:1009E000442740F960E480E00E94A9004C2F441F96
:1009F0004427441F60E880E00E94A90040E068E0CE
:100A000081E00E94A90087EC90E00197F1F700C017
:100A1000000041E068E081E00E94A9004C2F417095
:100A200060E180E00E94A900C1FB442740F960E238
:100A300080E00E94A900C2FB442740F960E480E006
:100A40000E94A900C3FB442740F960E880E00E94AF
:100A5000A90040E068E081E00E94A90087EC90E0F6
:100A60000197F1F700C0000041E068E081E0CF911C
:100A70000C94A90042E06EE081E00E94750042E023
:100A800060EF80E00E94750041E068E081E00E9434
:100A9000A9002FEF80E792E0215080409040E1F7DD
:100AA00000C0000040E060E180E00E94A90041E059
:100AB00060E280E00E94A90040E060E480E00E94E3
:100AC000A90040E060E880E00E94A90040E068E002
:100AD00081E00E94A90087EC90E00197F1F700C047
:100AE000000041E068E081E00E94A9008CE20E94E1
:100AF00070048FE99FE00197F1F700C000008FE0DC
:100B00000E9470048FE99FE00197F1F700C0000098
:100B100081E00E9470048FE39FE10197F1F700C02C
:100B2000000086E00E9470048FE99FE00197F1F7D2
:100B300000C0000008950C94D504CF93DF93EC011E
:100B40008991811103C0DF91CF9108950E94D5044E
:100B5000F7CF6068862B0C94700441E06FE082E070
:100B60000E94750042E060EF82E00E94750041E063
:100B700060EF82E00C94A9006F927F928F929F9217
:100B8000AF92BF92CF92DF92EF92FF920F931F939B
:100B9000CF93DF931F92CDB7DEB76C01FC011082BB
:100BA000F12CE12C90E1692E712C88248394912CF6
:100BB00053010E2C01C0AA0C0A94EAF740E06A2DFA
:100BC00082E00E94A90010E000E0AE014F5F5F4F9D
:100BD000B401002E01C0660F0A94EAF782E00E9479
:100BE000D5008981811136C0FFEF24E38CE0F150FC
:100BF00020408040E1F700C00000F801EE0FFF1F29
:100C0000EE0FFF1FE758FF4FEE0DFF1D8081F6012D
:100C1000808341E06A2D82E00E94A900F601808174
:100C2000811108C0FFEFEF1AFF0A24E0E216F10479
:100C300009F0BECF0F90DF91CF911F910F91FF90E0
:100C4000EF90DF90CF90BF90AF909F908F907F906C
:100C50006F9008950F5F1F4F0430110509F0B5CF55
:100C6000D8CF0C947103CF93DF93D62FC42F60E0BD
:100C700080650E9475038D2F0E948E038FE39CE98F
:100C80000197F1F700C000008C2F0E948E038FE3C4
:100C90009CE90197F1F700C00000DF91CF910C941F
:100CA00088030F931F93CF93DF93D62F8A01C22F10
:100CB000213108F0C0E160E080650E9475038D2F4E
:100CC0000E948E038FE39CE90197F1F700C00000BA
:100CD000C15060F48FE39CE90197F1F700C0000078
:100CE000DF91CF911F910F910C948803F8018191AE
:100CF0008F010E948E03ECCF0F931F93CF93DF934E
:100D0000D62F8A01C82FC06560E08C2F0E94750322
:100D10008D2F0E948E038FE39CE90197F1F700C0AD
:100D2000000061E08C2F0E947503C8010E949E03A1
:100D30008FE39CE90197F1F700C00000DF91CF91AC
:100D40001F910F910C948803EF92FF920F931F93C2
:100D5000CF93DF93162F7A01D82FD065CFEFC20F34
:100D600060E08D2F0E947503812F0E948E038FE318
:100D70009CE90197F1F700C0000061E08D2F0E940F
:100D80007503DC2F8701D15098F4C7018C0F911D9A
:100D90000E949E038FE39CE90197F1F700C00000D9
:100DA000DF91CF911F910F91FF90EF900C948803EA
:100DB000C8010E9495030F5F1F4FE5CF88E090E0C8
:100DC0009FBD8EBD1BBC1ABC1DBC1CBC08952AEF68
:100DD000269FA001279F500D11245BBD4ABD89B7F6
:100DE000806189BF8EB59FB583609FBD8EBD08951C
:100DF0008091BE00833018F48F5F8093BE00089509
:100E0000CF93DF938FE090E00E944209EC010097BE
:100E100041F0FC011192119211921192CF010E94A6
:100E20008909CE01DF91CF9108952F923F924F9281
:100E30005F926F927F928F929F92AF92BF92CF926A
:100E4000DF92EF92FF920F931F93CF93DF93EC010A
:100E50004A015B01622E702E0E94F81428803980AE
:100E60004A805B80D201C10188219921AA21BB213E
:100E700001115DC0892B8A2B8B2B09F05EC0C11438
:100E8000D104E104F104C1F040E050E0BA01662071
:100E900021F040E050E060E071E07110746048299A
:100EA00059296A297B2997018601CE0104960E945F
:100EB0001318212C312C21010E944616CD28CE2852
:100EC000CF2801F1811102C00E94C41E0E94011AA4
:100ED00091FD15C00FB6F8940F92688179818A81CF
:100EE0009B8175016401C622D722E822F922711084
:100EF00038C0CD28CE28CF28C9F50F900FBE1B01D2
:100F00002C015524C201B101DF91CF911F910F91A6
:100F1000FF90EF90DF90CF90BF90AF909F908F9019
:100F20007F906F905F904F903F902F90089588161C
:100F30009906AA06BB0609F0A2CF662071F0D5017A
:100F4000C40180959095A095B09582219321A4210C
:100F5000B52188839983AA83BB83C12CD12C7601C8
:100F6000ABCF8C149D04AE04BF0439F6662029F281
:100F700080949094A094B09486229722A822B922BB
:100F800088829982AA82BB82B8CF0F931F930FB633
:100F9000F8940F92FC0100811181228133814095E8
:100FA00050956095709540235123622373234083AD
:100FB0005183628373830F900FBEC901B8011F91E3
:100FC0000F910895FC016081718182819381089560
:100FD0002F923F924F925F926F927F928F929F9249
:100FE000AF92BF92CF92DF92EF92FF920F931F9337
:100FF000CF93DF93EC016A017B018C01095F1F4FE6
:101000000E94F814EB85FC85488159816A817B81B7
:101010004C295D296E297F29488359836A837B8304
:10102000C12CD12C7601488159816A817B81E017DE
:10103000F10729F5C094D094E094F0944C215D21FF
:101040006E217F21488359836A837B830E944616E1
:10105000688179818A819B81DF91CF911F910F9166
:10106000FF90EF90DF90CF90BF90AF909F908F90C8
:101070007F906F905F904F903F902F9008953480B5
:10108000258080809180A280B380D501C401BB27D8
:101090002C013D014422552266227722B2FC07C072
:1010A00045284628472841F4E32DF22DBCCF84156E
:1010B0009505A605B705C1F7B0FE04C0C82AD92A10
:1010C000EA2AFB2A7260CF010E940119EDCF4F92EC
:1010D0005F926F927F928F929F92AF92BF92CF92C8
:1010E000DF92EF92FF920F931F93CF93DF9300D085
:1010F00000D000D0CDB7DEB79E838D832A013B019F
:10110000480159010E94F814AD81BE818D919D91D5
:101110000D90BC91A02D89839A83AB83BC83B301CE
:10112000A2018D819E810E94E80789819A81AB810D
:10113000BC81482A592A6A2A7B2AD301C20180230A
:101140009921AA21BB2188159905AA05BB0509F09B
:1011500063C0ED81FE8180819181A281B381B5015F
:10116000A801409550956095709584239523A623FA
:10117000B72380839183A283B383C12CD12C7601C2
:101180000E944616CD28CE28CF2869F1811102C0D1
:101190000E94C41E0E94011A91FD22C00FB6F8944D
:1011A0000F92ED81FE816081718182819381750151
:1011B0006401C622D722E822F922C814D904EA041D
:1011C000FB0461F480949094A094B09486229722BA
:1011D000A822B92280829182A282B3820F900FBE90
:1011E0002B013C017724C301B20126960FB6F89477
:1011F000DEBF0FBECDBFDF91CF911F910F91FF904A
:10120000EF90DF90CF90BF90AF909F908F907F90A6
:101210006F905F904F900895C114D104E104F104E0
:1012200071F097018601B501A40175608D819E81E1
:1012300004960E941318412C512C3201A1CFAD818C
:10124000BE814D905D906D907C909ACFCF93DF934F
:10125000EC010E94F8148C81811107C0CE010E941C
:101260007A09DF91CF910C94461640E050E060E09F
:1012700072E08B859C850E940119EDCF0C94E807E4
:101280000C94C5070F931F93CF93DF938C010E949B
:10129000F8148091BF009091C000892B31F483EC49
:1012A00090E09093C0008093BF0001151105F9F004
:1012B0002091C1003091C200020F131F0B3D85E049
:1012C0001807A8F42017310790F4C091BF00D091FF
:1012D000C000C20FD31F1093C2000093C1000E9430
:1012E0004616CE01DF91CF911F910F910895D0E066
:1012F000C0E0F5CF08951092C2001092C100089589
:101300002091C1003091C2008BED95E0821B930BC0
:101310000895FC010396928381834FEF5FEFBA013A
:1013200043835483658376839087878392878187FD
:1013300010820895FC01138612860895CF93DF93DF
:101340009C01FB01DC011196CD91DC91D583C48316
:101350008E819F81978386838E819F81DC01159684
:101360007C936E9314977F836E8333872287F90172
:1013700080818F5F8083DF91CF910895EF92FF92FC
:101380000F931F93CF93DF937C01FB014081518129
:1013900062817381DC0113964F3F8FEF5807680716
:1013A000780701F5E701A985BA8514968D919C917E
:1013B000159795838483EC01FF83EE83B783A6831F
:1013C0001596FC93EE931497F386E286F7018081DD
:1013D0008F5F8083DF91CF911F910F91FF90EF90EE
:1013E0000895DC0114968D919C911597EC0108816C
:1013F00019812A813B81401751076207730788F7DB
:10140000D4CFCF93DF93FC01A285B38584819581EE
:1014100026813781EC013F832E83C681D7819D834E
:101420008C8311968D919C9112978E179F0721F4B2
:101430001296DC93CE931197138612868C9181506D
:101440008C938C91DF91CF9108950FB6F8940F9201
:10145000FC01968D0F900FBE81E0911180E0089500
:101460000F931F93CF93DF93EC01042F1E8D48A1A0
:101470004423C1F050E001111DC08A819B810E946C
:10148000DE1F88A12A813B81820F932F911D9B83B0
:101490008A832C813D818217930720F0888199816E
:1014A0009B838A831F5F1E8F80E0DF91CF911F9106
:1014B0000F9108958E819F810E94DE1F88A190E088
:1014C0009195819591092E813F81280F391F3F8386
:1014D0002E83488159812417350730F42C813D81B2
:1014E000820F931F9F838E830230E1F61123D1F286
:1014F0001150D8CFFC01CB0140A14423A1F050E012
:1015000026813781240F351F3783268364817581B7
:101510002617370720F020813181378326836681A3
:1015200077810C94DE1F0895EF92FF921F93CF9363
:10153000DF93EC010FB6F8940F921AA17C0183E1BE
:10154000E80EF11C1116C4F08FEF8AA30F900FBEA6
:101550000FB6F8940F9219A17E0188E0E80EF11CF5
:101560001116ACF08FEF89A30F900FBEDF91CF91D2
:101570001F91FF90EF9008958B89882329F3C7016D
:101580000E945C1881110E94F8191150DBCF8885E8
:10159000882341F3C7010E945C1881110E94F81949
:1015A0001150DECFCF93DF93009709F43FC0FC01C9
:1015B000278D222309F43AC0EC0140A10FB6F8941C
:1015C0000F9280819181FC01249FE00DF11D112477
:1015D000FD83EC831E8E9B838A832150330B429FB5
:1015E000F001439FF00D11248E0F9F1F9F838E8368
:1015F0008FEF89A38AA3611110C08885882339F0F1
:10160000CE0108960E945C1881110E94C41E0F90A2
:101610000FBE81E0DF91CF910895CE0108960E9420
:101620008909CE0143960E948909F1CF80E0F2CF6B
:101630000F931F93CF93DF93811108C0D0E0C0E0D8
:10164000CE01DF91CF911F910F910895162F082F92
:10165000869FC001112483960E944209EC010097E5
:1016600069F3111109C0998388830F8F18A361E072
:10167000CE010E94D20AE4CF839699838883F5CF66
:10168000AF92BF92CF92DF92EF92FF920F93CF93E0
:10169000DF93CDB7DEB729970FB6F894DEBF0FBE44
:1016A000CDBF7C016B012E833F834887598780E043
:1016B000570198E0A90EB11C0FB6F8940F92F701EC
:1016C000268D978D291710F0023019F5402FB6019D
:1016D000C7010E94300AF7019389992321F0C701BD
:1016E00043960E945C1881110E94C41E0F900FBE89
:1016F00081E029960FB6F894DEBF0FBECDBFDF9113
:10170000CF910F91FF90EF90DF90CF90BF90AF906F
:1017100008954E815F8168857985452B462B472B3F
:1017200021F40F900FBE80E0E4CF811104C0CE0100
:1017300001960E94A0190F900FBE0E94F8140FB6D8
:10174000F8940F92F70181A18F3F09F411A2F701DC
:1017500082A18F3F09F412A20F900FBEBE016A5FF3
:101760007F4FCE0101960E94B119811122C00FB6A0
:10177000F8940F92F701968D0F900FBE878D9813F6
:1017800012C04E815F8168857985C5010E94FD1771
:10179000C7010E94940A0E944616811102C00E944D
:1017A000C41E81E089CFC7010E94940A0E94461698
:1017B000F8CFC7010E94940A0E944616B4CFEF9258
:1017C000FF921F93CF93DF93EC019E8D8F8D98171F
:1017D00018F080E02230D1F47A011AA18E8D422FC8
:1017E000CE010E94300A1F3FB9F48B89811102C0DB
:1017F00081E00CC0CE0143960E945C188823C1F39F
:10180000E114F104A9F381E0F7018083DF91CF9126
:101810001F91FF90EF9008951F5F1AA3E9CFCF9318
:10182000DF93FC01968D878D9817D8F482A19F5F76
:10183000968F8F3F99F48389811102C081E00BC09C
:10184000EB01CF0143960E945C188823B9F32097DF
:10185000A9F381E08883DF91CF9108958F5F82A300
:10186000EDCF80E0F8CFAF92BF92CF92DF92FF92A0
:101870000F931F93CF93DF93CDB7DEB729970FB6A2
:10188000F894DEBF0FBECDBF8C016B012E833F836A
:101890004887598780E0580193E1A90EB11C0FB623
:1018A000F8940F92F801F68CFF2021F1B601C801DF
:1018B0000E947A0AFA94F801F68E8085882339F01E
:1018C000C80108960E945C1881110E94C41E0F90E6
:1018D0000FBE81E029960FB6F894DEBF0FBECDBFD4
:1018E000DF91CF911F910F91FF90DF90CF90BF902C
:1018F000AF9008954E815F8168857985452B462B91
:10190000472B21F40F900FBE80E0E4CF811104C07B
:10191000CE0101960E94A0190F900FBE0E94F814EC
:101920000FB6F8940F92F80181A18F3F09F411A22C
:10193000F80182A18F3F09F412A20F900FBEBE01E1
:101940006A5F7F4FCE0101960E94B11981111DC0BF
:10195000C8010E94250A882391F04E815F81688525
:101960007985C5010E94FD17C8010E94940A0E9452
:101970004616811102C00E94C41E81E090CFC801AA
:101980000E94940A0E944616F8CFC8010E94940A49
:101990000E944616C8010E94250A882371F3B4CF1D
:1019A000EF92FF920F931F93CF93DF93CDB7DEB7E4
:1019B00029970FB6F894DEBF0FBECDBF8C014E83C2
:1019C0005F836887798790E0780183E1E80EF11CF6
:1019D0000FB6F8940F92F801868D8823E1F08150BC
:1019E000868F8085882339F0C80108960E945C188C
:1019F00081110E94C41E0F900FBE81E029960FB680
:101A0000F894DEBF0FBECDBFDF91CF911F910F9134
:101A1000FF90EF9008954E815F8168857985452B11
:101A2000462B472B21F40F900FBE80E0E7CF91119A
:101A300004C0CE0101960E94A0190F900FBE0E9413
:101A4000F8140FB6F8940F92F80181A18F3F09F4B2
:101A500011A2F80182A18F3F09F412A20F900FBECC
:101A6000BE016A5F7F4FCE0101960E94B1198111BC
:101A70001DC0C8010E94250A882391F04E815F8114
:101A800068857985C7010E94FD17C8010E94940AE4
:101A90000E944616811102C00E94C41E91E098CF98
:101AA000C8010E94940A0E944616F8CFC8010E94FD
:101AB000940A0E944616C8010E94250A882371F3E1
:101AC000B4CFCF92DF92EF92FF920F931F93CF93F9
:101AD000DF93CDB7DEB729970FB6F894DEBF0FBE00
:101AE000CDBF8C017B012E833F834887598780E0DF
:101AF000680193E1C90ED11C0FB6F8940F92F8015A
:101B0000968D992329F1C680D780B701C8010E941C
:101B10007A0AF801D782C6828389882339F0C801FE
:101B200043960E945C1881110E94C41E0F900FBE44
:101B300081E029960FB6F894DEBF0FBECDBFDF91CE
:101B4000CF911F910F91FF90EF90DF90CF9008956C
:101B50004E815F8168857985452B462B472B21F483
:101B60000F900FBE80E0E5CF811104C0CE01019639
:101B70000E94A0190F900FBE0E94F8140FB6F8949F
:101B80000F92F80181A18F3F09F411A2F80182A1FF
:101B90008F3F09F412A20F900FBEBE016A5F7F4F04
:101BA000CE0101960E94B11981111DC0C8010E9489
:101BB000250A882391F04E815F8168857985C60169
:101BC0000E94FD17C8010E94940A0E9446168111C6
:101BD00002C00E94C41E81E08FCFC8010E94940AF7
:101BE0000E944616F8CFC8010E94940A0E94461629
:101BF000C8010E94250A882371F3B4CFEF92FF92A7
:101C00000F931F93CF93DF93FC01068D002321F1E7
:101C10007A01EC0111A10E947A0A01500E8F1F3F38
:101C2000C1F48885811102C081E00CC0CE01089604
:101C30000E945C188823C1F3E114F104A9F381E048
:101C4000F7018083DF91CF911F910F91FF90EF906B
:101C500008951F5F19A3E8CF80E0F4CF0F931F937F
:101C6000CF93DF93FC01268D222369F0EC010681DE
:101C700017810E947A0A1F830E8381E0DF91CF9142
:101C80001F910F91089580E0F9CF0FB6F8940F924D
:101C9000FC01868D0F900FBE08950FB6F8940F9239
:101CA000FC01268D0F900FBE878D821B0895FC01CD
:101CB000868D08950C947A09FC01968D81E091112E
:101CC00080E00895FC01968D81E0278D291380E046
:101CD0000895FC014481558122813381240F351FF1
:101CE00080819181B901681B790BCB01641775075D
:101CF00010F0841B950B0895AF92BF92CF92DF92A4
:101D0000EF92FF920F931F93CF93DF936C015B01D0
:101D10007A01E901FC0104811581021B130B4017B4
:101D2000510708F48A01F60184859585A801B5015B
:101D30008C0F9D1F0E94DE1F0E151F0558F4A70172
:101D4000401B510BB501600F711FF601848595850D
:101D50000E94DE1FCE018E0D9F1DF601248135816C
:101D60008217930710F0821B930BDF91CF911F9185
:101D70000F91FF90EF90DF90CF90BF90AF900895BC
:101D8000CF92DF92EF92FF920F931F93CF93DF9347
:101D900000D0CDB7DEB77C016B015A834983FC01CB
:101DA00082819381468540FF29C02017310718F1B1
:101DB0009C0142E050E0BE016F5F7F4FC7010E946F
:101DC0007C0E49815A814115510541F09C01B601B3
:101DD000C7010E947C0EF7019383828389819A81D7
:101DE0000F900F90DF91CF911F910F91FF90EF9087
:101DF000DF90CF9008951A821982E3CF49815A81EA
:101E00002417350708F4A9015A834983DACFAF9222
:101E1000BF92CF92DF92EF92FF920F931F93CF93D7
:101E2000DF936C015B017A01E901FC0104811581FA
:101E3000021B130B4017510708F48A01F601648551
:101E400075856C0F7D1FA801C5010E94DE1F0E1550
:101E50001F0558F4A701401B510BF60164857585D9
:101E6000C501800F911F0E94DE1FCE018E0D9F1DA8
:101E7000F601248135818217930710F0821B930BA2
:101E8000DF91CF911F910F91FF90EF90DF90CF9056
:101E9000BF90AF900895AF92BF92CF92DF92EF9232
:101EA000FF920F931F93CF93DF9300D0CDB7DEB790
:101EB0007C015B016A018901FC01208131818685F9
:101EC00080FF12C042E050E0BE016F5F7F4FC7014C
:101ED0000E94070F9C0189819A8102501109C8163E
:101EE000D906F8F4D12CC12CC016D10608F486010D
:101EF0000115110541F0A801B501C7010E94070FA6
:101F0000F70191838083C8010F900F90DF91CF91EB
:101F10001F910F91FF90EF90DF90CF90BF90AF9007
:101F200008956C01E1CFFF920F931F93CF93DF933E
:101F3000EC018B01F42E672B11F401E010E0F0E0CE
:101F4000E0E0C03F8FEFD807C8F4CE0140960E9472
:101F50004209FC01892B91F08DE0DF011D928A95E9
:101F6000E9F7CF010F96958784872196D583C4839F
:101F70001783068381E0F81280E08687CF01DF9126
:101F8000CF911F910F91FF900895FC01268521FFAD
:101F90000C947A092FE011922A95E9F70895FC0133
:101FA0000FB6F8940F9280859185892BC9F48285AC
:101FB0009385892BA9F48681978124813581448575
:101FC00055856DE0DF011D926A95E9F755874487D5
:101FD000358324839783868381E00F900FBE089515
:101FE00080E0FBCF6115710511F461E070E0FC0148
:101FF000248135816217730720F47783668381E03B
:10200000089580E00895FC012481358180819181CB
:102010006081718142815381A081B181A817B90784
:10202000A9F7C9010197860F971F841B950B82178B
:10203000930710F0821B930B08950C94690E2F9256
:102040003F924F925F926F927F928F929F92AF9248
:10205000BF92CF92DF92EF92FF920F931F93CF9395
:10206000DF93CDB7DEB72B970FB6F894DEBF0FBE68
:10207000CDBF4C017B876A871A010E831F83288797
:102080003987FC0184819581019726853A0120FFDB
:102090005DC0F2E06F0E711C8615970520F41E825C
:1020A0001F82188619868E819F81A885B985892B04
:1020B0008A2B8B2B09F050C0C4010E9403102C0105
:1020C00083019201A1016A857B85C4010E94C00E33
:1020D0003C01892B09F1C4010E94690EF40126819B
:1020E000378182179307C0F00E94F814F4018085AD
:1020F0009185892B79F080859185F12CE12C10E078
:1021000000E020E030E0A90160E00E943D1BF40106
:10211000118610860E944616C3012B960FB6F894BE
:10212000DEBF0FBECDBFDF91CF911F910F91FF900A
:10213000EF90DF90CF90BF90AF909F908F907F9067
:102140006F905F904F903F902F9008958417950760
:1021500008F0A9CF3C01A7CFCE0101960E948A19B1
:102160000FB6F8940F92C4010E9403102C0186153B
:10217000970560F560E090E080E00E94DE1D0E941F
:10218000FC19F401938782870F900FBEAE80BF8049
:10219000C884D984F12CE12C00E010E0980140E0E3
:1021A00050E0BA0180E00E94961AF401138612866C
:1021B000BE016A5F7F4FCE0101960E94B11988234C
:1021C00079F24114510409F477CF7ACF0F900FBE02
:1021D000F8CFAF92BF92CF92DF92EF92FF920F9320
:1021E0001F93CF93DF93EC015B017A0169018E8528
:1021F0008A0180FF02C00E5F1F4FCE010E940310B4
:102200009C01A701B501CE010E94C00E5C01892B83
:10221000D1F0CE010E94690E2E813F818217930773
:1022200090F088859985892B71F088859985F12CA6
:10223000E12C10E000E020E030E0A90160E00E9425
:10224000241C19861886C501DF91CF911F910F912B
:10225000FF90EF90DF90CF90BF90AF9008954F9296
:102260005F926F927F928F929F92AF92BF92CF9226
:10227000DF92EF92FF920F931F93CF93DF93EC01C6
:102280002B013A01580169018E85912C812C80FF28
:1022900003C082E0882E912CA114B104C104D104A2
:1022A00029F10FB6F8940F92CE010E94690E8C01AD
:1022B0008816990648F060E090E080E00E94DE1DFC
:1022C0000E94FC19998788870F900FBE801691068F
:1022D00040F1F12CE12C00E010E0980140E050E0EA
:1022E000BA0180E00E94961A19861886CE010E94D3
:1022F000690E8C0188169906A0F0D12CC12CC6015C
:10230000DF91CF911F910F91FF90EF90DF90CF90D1
:10231000BF90AF909F908F907F906F905F904F9005
:1023200008959801A301B201CE010E944B0F6C01E8
:10233000892B19F30E94F8148A859B85892B71F0EB
:102340008A859B85F12CE12C10E000E020E030E054
:10235000A90160E00E943D1B1B861A860E9446165A
:10236000CECF0F931F93CF93DF9300D0CDB7DEB7BF
:10237000FC01268520FD09C090E080E00F900F90C1
:10238000DF91CF911F910F9108958C010E94690EEA
:10239000039790F3F8012081318142E050E0BE01C3
:1023A0006F5F7F4FC8010E94070F89819A81E6CF36
:1023B000AF92BF92CF92DF92EF92FF920F931F9353
:1023C000CF93DF93EC015B017A0169018E8510E008
:1023D00000E080FF02C002E010E0CE010E94690E22
:1023E0000817190770F0B12CA12CC501DF91CF910E
:1023F0001F910F91FF90EF90DF90CF90BF90AF9023
:1024000008959C01A701B501CE010E944B0F5C010C
:10241000892B49F38A859B85892B39F38A859B858E
:10242000F12CE12C10E000E020E030E0A90160E0B8
:102430000E94241C1B861A86D8CFFC012081318182
:102440004281538181E04217530709F080E00895EB
:10245000CF93DF93FC012685D0E0C0E020FF02C0CF
:10246000C2E0D0E00E94031021E0C817D90708F4A9
:1024700020E0822FDF91CF910895CF92DF92EF92EB
:10248000FF920F931F93CF93DF93FC01208531853B
:10249000232BD1F06B01EC0180859185F12CE12C8F
:1024A00010E000E020E030E0A90160E00E94241C80
:1024B0001986188681E0DF91CF911F910F91FF90CF
:1024C000EF90DF90CF90089580E0F5CFCF92DF922C
:1024D000EF92FF920F931F93CF93DF93FC0122851E
:1024E0003385232BD1F06B01EC0182859385F12C90
:1024F000E12C10E000E020E030E0A90160E00E9463
:10250000241C1B861A8681E0DF91CF911F910F91C9
:10251000FF90EF90DF90CF90089580E0F5CFE091AD
:10252000CF06F091D006808181110CC08FEF9FEF14
:10253000DC018093A4069093A506A093A606B09311
:10254000A7060895E091CF06F091D0060780F085A8
:10255000E02D80819181A281B381EBCF8F929F92F8
:10256000AF92BF92CF92DF92EF92FF926B017C010C
:102570008090B1069090B206A090B306B090B406D9
:1025800080919F069091A00602960E94010AC80CB5
:10259000D91CEA1CFB1CE0919F06F091A006C282A8
:1025A000D382E482F58260919F067091A006C814E0
:1025B000D904EA04FB0480F48091CD069091CE0604
:1025C0006E5F7F4FFF90EF90DF90CF90BF90AF9006
:1025D0009F908F900C94BE098091CF069091D00669
:1025E0006E5F7F4F0E94BE098091A4069091A50660
:1025F000A091A606B091A706C816D906EA06FB0662
:1026000040F4C092A406D092A506E092A606F092ED
:10261000A706FF90EF90DF90CF90BF90AF909F9074
:102620008F9008958091B606811107C08091E706CA
:102630008230C0F30E94C41EF5CF0FB6F8940F92FB
:10264000E091BE06F091BF06C085D185CE0102960D
:102650000E94010A8091B50681508093B506809151
:10266000B60681508093B6060F900FBE8B8D9C8D61
:102670000E947A09CE010E947A09D4CF4F925F92CC
:102680006F927F928F929F92AF92BF92CF92DF9282
:10269000EF92FF920F93CF93DF934C016B015A019E
:1026A0002901CA010E9442093C01892BB1F08AE24A
:1026B00090E00E944209EC01892B61F07C8E6B8EC8
:1026C00081E0A81AB108A60CB71CC114D104B1F45A
:1026D0001D8E29C0C3010E947A098FEFDF91CF912F
:1026E0000F91FF90EF90DF90CF90BF90AF909F90B1
:1026F0008F907F906F905F904F900895F601AE019C
:10270000435E5F4FC60108962191DA012D93AD011A
:102710009F0121503109D9012C91222319F0E8178A
:10272000F90791F71CA2053008F004E00A8F6E014A
:10273000B2E0CB0ED11CC6010E949A09CE010E96C2
:102740000E949A09DB87CA8785E090E0A0E0B0E0AC
:10275000801B9109A109B1098E879F87A88BB98B2E
:10276000DF8BCE8B84E0FE01B596DF011D928A954A
:10277000E9F719A6A201B401C5010E94221E99839E
:102780008883E114F10419F0F701D183C0830FB6F7
:10279000F8940F928091B5068F5F8093B506809173
:1027A0009F069091A006892B09F07DC0D093A006CA
:1027B000C0939F068091B506813081F587EE96E043
:1027C0000E94890982EF96E00E9489098DEF96E0C8
:1027D0000E94890988E097E00E94890983E197E0D7
:1027E0000E9489098CED96E00E94890981ED96E0AE
:1027F0000E94890982EC96E00E94890987EB96E0A5
:102800000E9489098CED96E09093D0068093CF06C4
:1028100081ED96E09093CE068093CD068091A80638
:102820008F5F8093A806AA8D8091B0068A1710F456
:10283000A093B0062BE02A9FD0011124A951B94FD3
:1028400011960D90BC91A02DBF83AE8316968D91ED
:102850009C9117979987888716968D919C911797C9
:10286000FC01D582C4821796DC92CE9216979A8D7F
:10287000929FF0011124E951F94FFD87EC87808187
:102880008F5F80830F900FBE8091AF06882349F041
:10289000E0919F06F091A006828D891710F40E94A6
:1028A000C41E81E01BCF8091AF068111B7CFE091AC
:1028B0009F06F091A006928D8A8D891708F4AECFFD
:1028C000D093A006C0939F06A9CF0F931F93CF93D9
:1028D000DF93EC010FB6F8940F92892B21F4C0918D
:1028E0009F06D091A0068E010E5F1F4FC8010E9467
:1028F000010A888D998D892B21F0CE010E960E94B8
:10290000010A8091A8068F5F8093A80680919F0698
:102910009091A0068C179D0761F5B80187EB96E0B2
:102920000E949E098091B6068F5F8093B6060F9035
:102930000FBE80919F069091A0068C179D0739F0DD
:102940008B8D9C8D0E947A09CE010E947A0980911C
:10295000AF06882349F080919F069091A0068C17BE
:102960009D0711F40E94C41EDF91CF911F910F911A
:1029700008958091B50681508093B5060E948F120C
:10298000D6CFEF92FF920F9382EAE82E86E0F82EE0
:1029900000E030E020E045E550E060EA70E082E1F0
:1029A00093E10E943E138130C1F4F8944FEF5FEF42
:1029B000BA014093A4065093A5066093A6067093AF
:1029C000A7068093AF061092B1061092B20610923D
:1029D000B3061092B4060E948E1E809160000F9183
:1029E000FF90EF900895F8941092AF060C94C31ED8
:1029F0008091A1068F5F8093A10608950FB6F89489
:102A00000F926091B1067091B2068091B3069091D9
:102A1000B4060F900FBE08956091B1067091B20692
:102A20008091B3069091B40608958091B5060895FB
:102A3000009721F480919F069091A0064D960895ED
:102A4000CF92DF92EF92FF920F931F93CF93DF937A
:102A50008091A106811105C1C090B106D090B20647
:102A6000E090B306F090B4068FEFC81AD80AE80ACF
:102A7000F80AC092B106D092B206E092B306F09284
:102A8000B406C114D104E104F104B9F48091CF0675
:102A90009091D0062091CD063091CE063093D0068D
:102AA0002093CF069093CE068093CD068091A90601
:102AB0008F5F8093A9060E948F128091A406909147
:102AC000A506A091A606B091A706C816D906EA06E3
:102AD000FB06E8F480E0E0919F06F091A006E28D0D
:102AE000DBE0ED9FF0011124E951F94F9081923024
:102AF00008F081E09091AA06911181E0DF91CF91D9
:102B00001F910F91FF90EF90DF90CF90089580E09C
:102B10004BE0E091CF06F091D006908191110CC06E
:102B20004FEF5FEFBA014093A4065093A506609360
:102B3000A6067093A706CFCFE091CF06F091D006FE
:102B40000780F085E02D0084F185E02D028113815E
:102B500024813581C016D106E206F30648F40093BD
:102B6000A4061093A5062093A6063093A706B3CF1C
:102B7000A485B5852681378160857185E9017F83CC
:102B80006E83C085D1853D832C839F012E5F3F4F8F
:102B900011966D917C9112976217730721F412962A
:102BA000DC93CE931197158614869C9191509C933B
:102BB000A08DB18D1097F1F0628973890489158910
:102BC000EB011F830E83C489D5897D836C831196A5
:102BD0000D911C911297BF01625F7F4F0617170777
:102BE00021F41296DC93CE931197118E108E9C9146
:102BF00091509C93A28D9091B0069A1710F4A093D7
:102C0000B0064A9FD0011124A951B94F11960D90D9
:102C1000BC91A02DB783A68316966D917C911797D2
:102C2000718760871696CD91DC9117973D832C8331
:102C300017963C932E931697228D249FD001112432
:102C4000A951B94FB587A4879C919F5F9C93E09150
:102C50009F06F091A006928D291708F45ACF81E0C3
:102C600058CF8091AB069091AC06A091AD06B09183
:102C7000AE060196A11DB11D8093AB069093AC06E4
:102C8000A093AD06B093AE0680E038CFCF92DF922E
:102C9000EF92FF92CF93DF930FB6F8940F9280914B
:102CA000A10681508093A1068091A106882351F04E
:102CB00080E00F900FBEDF91CF91FF90EF90DF90FB
:102CC000CF9008958091B506882391F3C090C906EE
:102CD000D090CA06F0E0E0E03BE041E08091C2061F
:102CE00081112EC0EF2B11F00E948F12C090AB0605
:102CF000D090AC06E090AD06F090AE06C114D104C1
:102D0000E104F104A1F0C1E00E9420158111C093FB
:102D1000AA06D1E0CD1AD108E108F108A9F710926E
:102D2000AB061092AC061092AD061092AE068091E2
:102D3000AA06882309F4BCCF0E94C41E81E0B9CF43
:102D4000D6011896ED91FC91A08DB18D62897389A1
:102D500084899589EB019F838E8384899589EC0111
:102D60007D836C83BF01625F7F4F1196ED90FC9075
:102D70001297E616F70621F412969C938E931197FC
:102D8000118E108E8C9181508C93A485B58586818F
:102D9000978160857185EC017F836E836085718585
:102DA000EB019D838C83CF0102961196ED90FC90F0
:102DB0001297E816F90621F412967C936E931197F8
:102DC000158614862C9121502C93A28D2091B0064B
:102DD0002A1710F4A093B0063A9FD0011124A951EC
:102DE000B94F11960D90BC91A02DB783A68316966E
:102DF0006D917C9117977187608716966D917C9184
:102E00001797EB019D838C8317969C938E9316974F
:102E1000928D939FD0011124A951B94FB587A487F2
:102E20008C918F5F8C93A0919F06B091A0065A96CB
:102E30008C91981708F452CF4093AA064FCF8F92E7
:102E40009F92AF92BF92CF92DF92EF92FF920F9339
:102E50001F93CF93DF93EC016A017B010E94F8146A
:102E60008090B1069090B206A090B306B090B406E0
:102E7000088119812A813B81C00ED11EE21EF31EFA
:102E800080169106A206B30670F5C016D106E206BA
:102E9000F30630F411E08C149D04AE04BF0408F076
:102EA00010E0C882D982EA82FB82112341F0C70177
:102EB000B601681979098A099B090E94AE120E941D
:102EC0004616811102C00E94C41E812FDF91CF914E
:102ED0001F910F91FF90EF90DF90CF90BF90AF9038
:102EE0009F908F900895C016D106E206F30690F6E3
:102EF00011E0D7CFCF92DF92EF92FF926B017C016E
:102F0000C114D104E104F10439F40E94C41EFF90FD
:102F1000EF90DF90CF9008950E94F814C701B6019A
:102F20000E94AE120E944616882379F3F0CFCF920A
:102F3000DF92EF92FF926B017C010E94F814809166
:102F4000AB069091AC06A091AD06B091AE06C80E4E
:102F5000D91EEA1EFB1EC092AB06D092AC06E092D0
:102F6000AD06F092AE06FF90EF90DF90CF900C94FC
:102F700046168091A106882321F081E08093AA065D
:102F800008951092AA062091B0068BE0422F50E0DF
:102F9000849FF001859FF00D1124E951F94F908134
:102FA000992349F1A181B28114960D90BC91A02D75
:102FB000B283A183289FC00111248651994FA8177D
:102FC000B90729F414968D919C91928381838BE0AB
:102FD000849FF001859FF00D1124E951F94F018084
:102FE000F281E02D808591859093A00680939F06C5
:102FF0002093B00608952150C9CFCF92DF92EF926F
:10300000FF926A017B0160919F067091A006625F4A
:103010007F4F0E94BE09C701B601FF90EF90DF907D
:10302000CF900C94AE120F931F93CF93DF93FC01BC
:10303000A0919F06B091A00670681E964D935D9377
:103040006D937C935197A181B281C0919F06D091DD
:10305000A006BB8BAA8BC0919F06D091A0061696A6
:103060008D919C9117979D8B8C8B80919F06909151
:10307000A0061696CD91DC9117970E969D838C83B2
:1030800080919F069091A0060E9617969C938E9322
:103090001697A0919F06B091A0065996FC93EE93C7
:1030A000589780818F5F8083C901B801DF91CF91EC
:1030B0001F910F910C94AE12CF93DF93DC01179602
:1030C000ED91FC910084F185E02DA08DB18D828978
:1030D000938924893589EC013F832E83C489D5895E
:1030E0009D838C83CF010E9611962D913C91129762
:1030F0002817390721F41296DC93CE931197118E7D
:10310000108E2C9121502C932091A106211157C093
:10311000A485B5858681978120853185EC013F8323
:103120002E83C085D1859D838C83CF010296119615
:103130002D913C9112972817390721F41296DC93B0
:10314000CE931197158614862C9121502C93C28D05
:103150002091B0062C1710F4C093B0062BE02C9FE2
:10316000E0011124C951D94F0980DA81C02DD783DC
:10317000C6834E815F8151874087AE81BF8115969E
:103180009C938E9314979F838E83A28DA29FD001D0
:103190001124A951B94FB587A4878C918F5F8C9367
:1031A000A0919F06B091A006928D5A968C91891796
:1031B00030F581E08093AA06DF91CF910895A09128
:1031C000C306B091C406B38BA28B16962D913C9189
:1031D0001797358B248B1696CD91DC9117979D838D
:1031E0008C8317969C938E93169782EC96E0918F22
:1031F000808F8091C2068F5F8093C206D1CF80E01E
:10320000DBCFCF93DF93DC0170684D935D936D93BB
:103210007C9313971896ED91FC9119971A964D91FE
:103220005C911B9714962D913C91159716968D9154
:103230009C911797E9019F838E8316968D919C919F
:103240001797EC013D832C83EA0129813A812A17E3
:103250003B0711F49A8389831B961C921E921A973E
:10326000DA018C9181508C93A485B58586819781F4
:1032700020853185EC013F832E83C085D1859D83D8
:103280008C83CF01029611962D913C9112972817AD
:10329000390721F41296DC93CE9311971586148684
:1032A0002C9121502C93C28D2091B0062C1710F434
:1032B000C093B0064BE04C9FE0011124C951D94F97
:1032C0000980DA81C02DD783C6832E813F81318763
:1032D00020872E813F81D90115969C938E93149758
:1032E0009F838E83928D949FD0011124A951B94F51
:1032F000B587A4878C918F5F8C93E0919F06F091A6
:10330000A006828D891718F481E08093AA06DF91C8
:10331000CF9108950FB6F8940F922091A906FC0161
:1033200020834091B1065091B2066091B30670912E
:10333000B40641835283638374830F900FBE089554
:103340002091A906FC0120834091B1065091B2065C
:103350006091B3067091B406418352836383748392
:1033600008950F931F93CF93DF93FB010FB6F8944B
:103370000F924091B1065091B2066091B3067091E0
:10338000B406DC0111960D911D912D913C9114977D
:10339000A091A906EC01B881BA1789F0401751072E
:1033A0006207730760F0108211821282138281E03B
:1033B0000F900FBEDF91CF911F910F910895401B89
:1033C000510B620B730B00811181228133814017F5
:1033D00051076207730738F7041B150B260B370BD1
:1033E00000831183228333830E94A01980E0E0CF01
:1033F00081E08093AA06089580919F069091A0068F
:103400000895E0919F06F091A00646855785608952
:103410007189A0919F06B091A006E0919F06F0915E
:10342000A0065A962C9185E090E0A0E0B0E0821BC7
:103430009109A109B10986879787A08BB18BCB0130
:10344000BA010895CF92DF92EF92FF920F931F93EC
:10345000CF93DF93F62E0FB6F8940F92E0919F066C
:10346000F091A006C82FD0E08E01000F111F000FB1
:10347000111FE00FF11F85A196A1A7A1B0A5892B6F
:103480008A2B8B2B99F4E0919F06F091A006EC0F0C
:10349000FD1F81E081A7211531054105510531F05E
:1034A000CA01B9010E94AE120E94C41E0F900FBE45
:1034B0000FB6F8940F92E0919F06F091A006E00FEE
:1034C000F11F65A176A187A190A561157105810500
:1034D000910569F020919F063091A006020F131FFD
:1034E000FF20B9F0F80115A216A217A210A620918C
:1034F0009F063091A006C20FD31F19A60F900FBED2
:10350000DF91CF911F910F91FF90EF90DF90CF90BF
:1035100008956B017C01F1E0CF1AD108E108F108B0
:10352000F801C5A2D6A2E7A2F0A6E1CF4F925F9222
:103530006F927F92AF92BF92CF92DF92EF92FF9203
:103540000F931F93CF93DF93280139010FB6F8949F
:103550000F92E0919F06F091A006C82FD0E0EC0FEB
:10356000FD1F81A5823071F180919F069091A00688
:10357000FE01EE0FFF1FEE0FFF1FE80FF91F85A1E1
:1035800096A1A7A1B0A5409550956095709584230C
:103590009523A623B72385A396A3A7A3B0A7E0915D
:1035A0009F06F091A006EC0FFD1F81E081A7A114FA
:1035B000B104C104D10431F0C601B5010E94AE12BC
:1035C0000E94C41E0F900FBE0FB6F8940F92E11424
:1035D000F104A1F0E0919F06F091A006CE01880FC2
:1035E000991F880F991FE80FF91F85A196A1A7A120
:1035F000B0A5F70180839183A283B383E0919F06F6
:10360000F091A006EC0FFD1F81A58230A1F5E0919D
:103610009F06F091A006CE01880F991F880F991F71
:10362000E80FF91F85A196A1A7A1B0A540945094D9
:103630006094709484219521A621B72185A396A337
:10364000A7A3B0A781E020919F063091A006C20FEA
:10365000D31F19A60F900FBEDF91CF911F910F912D
:10366000FF90EF90DF90CF90BF90AF907F906F90E2
:103670005F904F90089580E0E6CF8F929F92AF9237
:10368000BF92CF92DF92EF92FF920F931F93CF934F
:10369000DF93DC010FB6F8940F9270E0E114F104AF
:1036A00081F0FB01EE0FFF1FEE0FFF1FE80FF91F68
:1036B00085A096A0A7A0B0A4E70188829982AA82DB
:1036C000BB82FD01E60FF71F81A592E091A70230B2
:1036D000110509F440C0B0F40130110541F1813009
:1036E00009F44DC081E00F900FBEDF91CF911F9183
:1036F0000F91FF90EF90DF90CF90BF90AF909F9091
:103700008F9008950330110531F00430110539F719
:10371000823009F497C0660F771F660F771FFD018F
:10372000E60FF71F25A336A347A350A7D8CF660FF0
:10373000771F660F771FFD01E60FF71FC5A0D6A004
:10374000E7A0F0A4C22AD32AE42AF52AC5A2D6A269
:10375000E7A2F0A6C4CF660F771F660F771FFD01A3
:10376000E60FF71F45A156A167A170A54F5F5F4FF8
:103770006F4F7F4F45A356A367A370A7B0CF1C968A
:10378000ED91FC911D9716968D919C911797189627
:103790002D913C911997EC013F832E831896CD9182
:1037A000DC9119979D838C839D012E5F3F4F818112
:1037B00092818217930711F4D283C1831D961C92C4
:1037C0001E921C978081815080835A96CC915A9783
:1037D0008091B0068C1710F4C093B0064BE04C9F5C
:1037E000E0011124C951D94F0980DA81C02D179603
:1037F000DC93CE9316978E819F8119969C938E931E
:1038000018978E819F81FC01358324833F832E830B
:103810005A969C915A97949FF0011124E951F94FBF
:103820001D96FC93EE931C9780818F5F8083E091BF
:103830009F06F091A006828D891708F053CF0E9451
:10384000C41E50CF80E04FCF8F929F92AF92BF9215
:10385000CF92DF92EF92FF920F931F93CF93DF935C
:10386000DC0170E0E114F10481F0FB01EE0FFF1FB9
:10387000EE0FFF1FE80FF91F85A096A0A7A0B0A428
:10388000E70188829982AA82BB82FD01E60FF71FB9
:1038900081A592E091A702301105F1F1A0F4013069
:1038A000110531F1813009F44BC081E0DF91CF91F6
:1038B0001F910F91FF90EF90DF90CF90BF90AF904E
:1038C0009F908F9008950330110531F00430110559
:1038D00049F7823009F4C5C0660F771F660F771F5E
:1038E000FD01E60FF71F25A336A347A350A7DACFA4
:1038F000660F771F660F771FFD01E60FF71F85A084
:1039000096A0A7A0B0A4822A932AA42AB52A85A2A9
:1039100096A2A7A2B0A6C6CF660F771F660F771F25
:10392000FD01E60FF71F45A156A167A170A54F5FE6
:103930005F4F6F4F7F4F45A356A367A370A7B2CFCA
:103940008091A10681116BC01C96ED91FC911D9791
:1039500016968D919C91179718962D913C911997D9
:10396000EC013F832E831896CD91DC9119979D83AE
:103970008C839D012E5F3F4F818192818217930737
:1039800011F4D283C1831D961C921E921C978081D4
:10399000815080835A96CC915A978091B0068C17AB
:1039A00010F4C093B0068BE08C9FE0011124C95144
:1039B000D94F0980DA81C02D1796DC93CE931697E4
:1039C0004E815F8119965C934E931897EE81FF812B
:1039D000358324833F832E835A96EC915A97E89F30
:1039E000F0011124E951F94F1D96FC93EE931C97B9
:1039F00080818F5F8083E0919F06F091A0065A96A8
:103A00009C91828D891708F050CFC114D10419F010
:103A100081E0F601808381E08093AA0647CFE091A0
:103A2000C306F091C4065396FC93EE935297868199
:103A3000978155969C938E935497C681D781CD01DB
:103A40000E969D838C839783868382EC96E05996AD
:103A50009C938E9358978091C2068F5F8093C20685
:103A6000CACF80E023CF0F931F93CF93DF93FC0146
:103A7000A62FB0E0EC01CA0FDB1F89A592E099A741
:103A8000AA0FBB1FAA0FBB1FAE0FBF1F95960D91AC
:103A90001D912D913C9198970F5F1F4F2F4F3F4FD6
:103AA00095960D931D932D933C939897813009F033
:103AB0005EC08091A10681115FC0A485B585868115
:103AC000978120853185EC013F832E83C085D18588
:103AD0009D838C83CF01029611962D913C91129774
:103AE0002817390721F41296DC93CE931197158687
:103AF00014862C9121502C93C28D2091B0062C1746
:103B000010F4C093B0062BE02C9FE0011124C951A2
:103B1000D94F0980DA81C02DD783C6836E817F811A
:103B200071876087AE81BF8115969C938E931497A1
:103B30009F838E83A28DA29FD0011124A951B94FDA
:103B4000B587A4878C918F5F8C93A0919F06B091CD
:103B5000A006928D5A968C91891748F4411551050B
:103B600019F081E0FA01808381E08093AA06DF9159
:103B7000CF911F910F910895A091C306B091C406F3
:103B8000B38BA28B16968D919C911797958B848BF6
:103B90001696CD91DC911797CF010E969D838C835D
:103BA00017969C938E93169782EC96E0918F808F58
:103BB0008091C2068F5F8093C206C7CF009721F421
:103BC00080919F069091A0060FB6F8940F92FC0189
:103BD000E60FF11D81A5823029F411A681E00F9036
:103BE0000FBE089580E0FBCFCF92DF92EF92FF925D
:103BF000009721F480919F069091A0060FB6F8944B
:103C00000F9274E0679FF0011124E80FF91F65A17E
:103C100076A187A190A5C5A0D6A0E7A0F0A4209585
:103C2000309540955095C222D322E422F522C5A2B8
:103C3000D6A2E7A2F0A60F900FBEFF90EF90DF9004
:103C4000CF90089531E1FC013083319722E2208347
:103C50003197A3E3A08331976083319770833197C5
:103C60001082319760E8608331971082319762E06B
:103C70006083319763E06083319764E060833197BC
:103C800065E06083319766E06083319767E0608329
:103C9000319768E06083319769E06083319760E134
:103CA000608331973083319732E13083319733E14C
:103CB0003083319734E13083319735E13083319768
:103CC00036E13083319737E13083319738E1308303
:103CD000319739E13083319730E23083319731E2E7
:103CE000308331972083319723E2208331974083BB
:103CF00031975083319726E22083319727E2208342
:103D0000319728E22083319729E22083319720E3FD
:103D10002083319721E32083869708951BBC89EF88
:103D20008ABD8BE08EBD89B7806189BFA0919F0657
:103D3000B091A006CD91CDBFDD91DEBFFF91EF9197
:103D4000DF91CF91BF91AF919F918F917F916F91B3
:103D50005F914F913F912F911F910F91FF90EF90A5
:103D6000DF90CF90BF90AF909F908F907F906F909B
:103D70005F904F903F902F901F900F900FBE0F902D
:103D8000089581E0089508950F920FB6F8940F9268
:103D90001F9211242F923F924F925F926F927F92C7
:103DA0008F929F92AF92BF92CF92DF92EF92FF924B
:103DB0000F931F932F933F934F935F936F937F9333
:103DC0008F939F93AF93BF93CF93DF93EF93FF9323
:103DD000A0919F06B091A0060DB60D920EB60D9261
:103DE0000E94B917A0919F06B091A006CD91CDBFBA
:103DF000DD91DEBFFF91EF91DF91CF91BF91AF9148
:103E00009F918F917F916F915F914F913F912F91F2
:103E10001F910F91FF90EF90DF90CF90BF90AF90E8
:103E20009F908F907F906F905F904F903F902F90DA
:103E30001F900F900FBE0F9008950F920FB6F89439
:103E40000F921F9211242F923F924F925F926F9286
:103E50007F928F929F92AF92BF92CF92DF92EF921A
:103E6000FF920F931F932F933F934F935F936F9303
:103E70007F938F939F93AF93BF93CF93DF93EF93F2
:103E8000FF93A0919F06B091A0060DB60D920EB6BD
:103E90000D920E94201581110E94B917A0919F06D2
:103EA000B091A006CD91CDBFDD91DEBFFF91EF9126
:103EB000DF91CF91BF91AF919F918F917F916F9142
:103EC0005F914F913F912F911F910F91FF90EF9034
:103ED000DF90CF90BF90AF909F908F907F906F902A
:103EE0005F904F903F902F901F900F900FBE0F90BC
:103EF00008950E941D1F1895F12CE12C04E030E07C
:103F000020E045E550E069E870E089E490E00E9437
:103F10003E1303E030E020E045E550E06EE870E05D
:103F200087E590E00E943E1302E030E020E045E5A6
:103F300050E064E970E081E690E00E943E1301E009
:103F400030E020E045E550E06AE970E08BE690E083
:103F50000E943E130E94C114FFCFA1E21A2EAA1B99
:103F6000BB1BFD010DC0AA1FBB1FEE1FFF1FA21729
:103F7000B307E407F50720F0A21BB30BE40BF50B26
:103F8000661F771F881F991F1A9469F760957095AF
:103F9000809590959B01AC01BD01CF010895A29F32
:103FA000B001B39FC001A39F700D811D1124911D0D
:103FB000B29F700D811D1124911D0895FB01DC013C
:103FC00002C001900D9241505040D8F70895F894E6
:023FD000FFCF21
:103FD2000439003600330030003B0038003500322F
:103FE200003A003700340031003132334134353683
:103FF20042373839432A302344496E697400746168
:10400200736B31007461736B32007461736B3300D4
:0640120049444C4500008A
:00000001FF
